{
  "contracts/VotingContract.sol": {
    "VotingContract": {
      "abi": [
        {
          "inputs": [
            {
              "internalType": "address",
              "name": "_passportDecoder",
              "type": "address"
            }
          ],
          "stateMutability": "nonpayable",
          "type": "constructor"
        },
        {
          "inputs": [
            {
              "internalType": "address",
              "name": "owner",
              "type": "address"
            }
          ],
          "name": "OwnableInvalidOwner",
          "type": "error"
        },
        {
          "inputs": [
            {
              "internalType": "address",
              "name": "account",
              "type": "address"
            }
          ],
          "name": "OwnableUnauthorizedAccount",
          "type": "error"
        },
        {
          "inputs": [],
          "name": "ReentrancyGuardReentrantCall",
          "type": "error"
        },
        {
          "anonymous": false,
          "inputs": [
            {
              "indexed": true,
              "internalType": "uint256",
              "name": "sessionId",
              "type": "uint256"
            },
            {
              "indexed": false,
              "internalType": "string",
              "name": "candidateName",
              "type": "string"
            }
          ],
          "name": "CandidateAdded",
          "type": "event"
        },
        {
          "anonymous": false,
          "inputs": [
            {
              "indexed": true,
              "internalType": "address",
              "name": "previousOwner",
              "type": "address"
            },
            {
              "indexed": true,
              "internalType": "address",
              "name": "newOwner",
              "type": "address"
            }
          ],
          "name": "OwnershipTransferred",
          "type": "event"
        },
        {
          "anonymous": false,
          "inputs": [
            {
              "indexed": true,
              "internalType": "address",
              "name": "newDecoder",
              "type": "address"
            }
          ],
          "name": "PassportDecoderUpdated",
          "type": "event"
        },
        {
          "anonymous": false,
          "inputs": [
            {
              "indexed": true,
              "internalType": "uint256",
              "name": "sessionId",
              "type": "uint256"
            }
          ],
          "name": "SessionArchived",
          "type": "event"
        },
        {
          "anonymous": false,
          "inputs": [
            {
              "indexed": true,
              "internalType": "address",
              "name": "voter",
              "type": "address"
            },
            {
              "indexed": true,
              "internalType": "uint256",
              "name": "sessionId",
              "type": "uint256"
            },
            {
              "indexed": false,
              "internalType": "uint256",
              "name": "candidateId",
              "type": "uint256"
            }
          ],
          "name": "VoteCast",
          "type": "event"
        },
        {
          "anonymous": false,
          "inputs": [
            {
              "indexed": true,
              "internalType": "address",
              "name": "creator",
              "type": "address"
            },
            {
              "indexed": false,
              "internalType": "uint256",
              "name": "sessionId",
              "type": "uint256"
            },
            {
              "indexed": false,
              "internalType": "string",
              "name": "title",
              "type": "string"
            },
            {
              "indexed": false,
              "internalType": "uint256",
              "name": "startTime",
              "type": "uint256"
            },
            {
              "indexed": false,
              "internalType": "uint256",
              "name": "endTime",
              "type": "uint256"
            },
            {
              "indexed": false,
              "internalType": "bool",
              "name": "requiresPassport",
              "type": "bool"
            }
          ],
          "name": "VotingSessionCreated",
          "type": "event"
        },
        {
          "inputs": [
            {
              "internalType": "uint256",
              "name": "sessionId",
              "type": "uint256"
            },
            {
              "internalType": "string",
              "name": "name",
              "type": "string"
            }
          ],
          "name": "addCandidate",
          "outputs": [],
          "stateMutability": "nonpayable",
          "type": "function"
        },
        {
          "inputs": [
            {
              "internalType": "uint256",
              "name": "sessionId",
              "type": "uint256"
            }
          ],
          "name": "archiveSession",
          "outputs": [],
          "stateMutability": "nonpayable",
          "type": "function"
        },
        {
          "inputs": [
            {
              "internalType": "string",
              "name": "title",
              "type": "string"
            },
            {
              "internalType": "uint256",
              "name": "startTime",
              "type": "uint256"
            },
            {
              "internalType": "uint256",
              "name": "endTime",
              "type": "uint256"
            },
            {
              "internalType": "bool",
              "name": "requiresPassport",
              "type": "bool"
            }
          ],
          "name": "createVotingSession",
          "outputs": [],
          "stateMutability": "nonpayable",
          "type": "function"
        },
        {
          "inputs": [
            {
              "internalType": "uint256",
              "name": "sessionId",
              "type": "uint256"
            }
          ],
          "name": "getCandidates",
          "outputs": [
            {
              "components": [
                {
                  "internalType": "string",
                  "name": "name",
                  "type": "string"
                },
                {
                  "internalType": "uint256",
                  "name": "voteCount",
                  "type": "uint256"
                }
              ],
              "internalType": "struct VotingContract.Candidate[]",
              "name": "",
              "type": "tuple[]"
            }
          ],
          "stateMutability": "view",
          "type": "function"
        },
        {
          "inputs": [
            {
              "internalType": "uint256",
              "name": "sessionId",
              "type": "uint256"
            }
          ],
          "name": "getSessionCreator",
          "outputs": [
            {
              "internalType": "address",
              "name": "",
              "type": "address"
            }
          ],
          "stateMutability": "view",
          "type": "function"
        },
        {
          "inputs": [
            {
              "internalType": "uint256",
              "name": "sessionId",
              "type": "uint256"
            }
          ],
          "name": "getWinner",
          "outputs": [
            {
              "internalType": "string",
              "name": "winnerName",
              "type": "string"
            },
            {
              "internalType": "bool",
              "name": "isTie",
              "type": "bool"
            }
          ],
          "stateMutability": "view",
          "type": "function"
        },
        {
          "inputs": [
            {
              "internalType": "uint256",
              "name": "sessionId",
              "type": "uint256"
            },
            {
              "internalType": "address",
              "name": "user",
              "type": "address"
            }
          ],
          "name": "hasUserVoted",
          "outputs": [
            {
              "internalType": "bool",
              "name": "",
              "type": "bool"
            }
          ],
          "stateMutability": "view",
          "type": "function"
        },
        {
          "inputs": [],
          "name": "owner",
          "outputs": [
            {
              "internalType": "address",
              "name": "",
              "type": "address"
            }
          ],
          "stateMutability": "view",
          "type": "function"
        },
        {
          "inputs": [],
          "name": "passportDecoder",
          "outputs": [
            {
              "internalType": "contract IGitcoinPassportDecoder",
              "name": "",
              "type": "address"
            }
          ],
          "stateMutability": "view",
          "type": "function"
        },
        {
          "inputs": [],
          "name": "renounceOwnership",
          "outputs": [],
          "stateMutability": "nonpayable",
          "type": "function"
        },
        {
          "inputs": [],
          "name": "sessionCount",
          "outputs": [
            {
              "internalType": "uint256",
              "name": "",
              "type": "uint256"
            }
          ],
          "stateMutability": "view",
          "type": "function"
        },
        {
          "inputs": [
            {
              "internalType": "address",
              "name": "_decoder",
              "type": "address"
            }
          ],
          "name": "setPassportDecoder",
          "outputs": [],
          "stateMutability": "nonpayable",
          "type": "function"
        },
        {
          "inputs": [
            {
              "internalType": "address",
              "name": "newOwner",
              "type": "address"
            }
          ],
          "name": "transferOwnership",
          "outputs": [],
          "stateMutability": "nonpayable",
          "type": "function"
        },
        {
          "inputs": [
            {
              "internalType": "uint256",
              "name": "sessionId",
              "type": "uint256"
            },
            {
              "internalType": "uint256",
              "name": "candidateId",
              "type": "uint256"
            }
          ],
          "name": "vote",
          "outputs": [],
          "stateMutability": "nonpayable",
          "type": "function"
        },
        {
          "inputs": [
            {
              "internalType": "uint256",
              "name": "",
              "type": "uint256"
            }
          ],
          "name": "votingSessions",
          "outputs": [
            {
              "internalType": "uint256",
              "name": "id",
              "type": "uint256"
            },
            {
              "internalType": "string",
              "name": "title",
              "type": "string"
            },
            {
              "internalType": "uint256",
              "name": "startTime",
              "type": "uint256"
            },
            {
              "internalType": "uint256",
              "name": "endTime",
              "type": "uint256"
            },
            {
              "internalType": "bool",
              "name": "isActive",
              "type": "bool"
            },
            {
              "internalType": "address",
              "name": "creator",
              "type": "address"
            },
            {
              "internalType": "bool",
              "name": "requiresPassport",
              "type": "bool"
            }
          ],
          "stateMutability": "view",
          "type": "function"
        }
      ],
      "evm": {
        "bytecode": {
          "linkReferences": {},
          "object": "608060405234801561001057600080fd5b50604051612af6380380612af68339818101604052810190610032919061022a565b33600073ffffffffffffffffffffffffffffffffffffffff168173ffffffffffffffffffffffffffffffffffffffff16036100a55760006040517f1e4fbdf700000000000000000000000000000000000000000000000000000000815260040161009c9190610266565b60405180910390fd5b6100b48161010360201b60201c565b506001808190555080600460006101000a81548173ffffffffffffffffffffffffffffffffffffffff021916908373ffffffffffffffffffffffffffffffffffffffff16021790555050610281565b60008060009054906101000a900473ffffffffffffffffffffffffffffffffffffffff169050816000806101000a81548173ffffffffffffffffffffffffffffffffffffffff021916908373ffffffffffffffffffffffffffffffffffffffff1602179055508173ffffffffffffffffffffffffffffffffffffffff168173ffffffffffffffffffffffffffffffffffffffff167f8be0079c531659141344cd1fd0a4f28419497f9722a3daafe3b4186f6b6457e060405160405180910390a35050565b600080fd5b600073ffffffffffffffffffffffffffffffffffffffff82169050919050565b60006101f7826101cc565b9050919050565b610207816101ec565b811461021257600080fd5b50565b600081519050610224816101fe565b92915050565b6000602082840312156102405761023f6101c7565b5b600061024e84828501610215565b91505092915050565b610260816101ec565b82525050565b600060208201905061027b6000830184610257565b92915050565b612866806102906000396000f3fe608060405234801561001057600080fd5b50600436106100f55760003560e01c806384dec12b11610097578063b384abef11610066578063b384abef14610277578063d237884e14610293578063dc296ae1146102b1578063f2fde38b146102e1576100f5565b806384dec12b146101f15780638da5cb5b1461020d578063978137d21461022b578063aa6f22f514610247576100f5565b80633e39a7a5116100d35780633e39a7a5146101685780634129b2c914610198578063715018a6146101c957806373cd8336146101d3576100f5565b80631186eb7c146100fa5780631750a3d0146101305780633544bfea1461014c575b600080fd5b610114600480360381019061010f91906115fa565b6102fd565b6040516101279796959493929190611722565b60405180910390f35b61014a600480360381019061014591906118cd565b610401565b005b610166600480360381019061016191906115fa565b610651565b005b610182600480360381019061017d91906115fa565b610756565b60405161018f9190611a81565b60405180910390f35b6101b260048036038101906101ad91906115fa565b6108c1565b6040516101c0929190611aa3565b60405180910390f35b6101d1610b2d565b005b6101db610b41565b6040516101e89190611ad3565b60405180910390f35b61020b60048036038101906102069190611b1a565b610b47565b005b610215610ccc565b6040516102229190611b9d565b60405180910390f35b61024560048036038101906102409190611be4565b610cf5565b005b610261600480360381019061025c91906115fa565b610df3565b60405161026e9190611b9d565b60405180910390f35b610291600480360381019061028c9190611c11565b610e8d565b005b61029b61129d565b6040516102a89190611cb0565b60405180910390f35b6102cb60048036038101906102c69190611ccb565b6112c3565b6040516102d89190611d0b565b60405180910390f35b6102fb60048036038101906102f69190611be4565b611388565b005b600360205280600052604060002060009150905080600001549080600101805461032690611d55565b80601f016020809104026020016040519081016040528092919081815260200182805461035290611d55565b801561039f5780601f106103745761010080835404028352916020019161039f565b820191906000526020600020905b81548152906001019060200180831161038257829003601f168201915b5050505050908060020154908060030154908060060160009054906101000a900460ff16908060060160019054906101000a900473ffffffffffffffffffffffffffffffffffffffff16908060060160159054906101000a900460ff16905087565b818060036000838152602001908152602001600020600001541461045a576040517f08c379a000000000000000000000000000000000000000000000000000000000815260040161045190611dd2565b60405180910390fd5b826003600082815260200190815260200160002060060160019054906101000a900473ffffffffffffffffffffffffffffffffffffffff1673ffffffffffffffffffffffffffffffffffffffff163373ffffffffffffffffffffffffffffffffffffffff16146104ff576040517f08c379a00000000000000000000000000000000000000000000000000000000081526004016104f690611e64565b60405180910390fd5b60006003600086815260200190815260200160002090508060060160009054906101000a900460ff16610567576040517f08c379a000000000000000000000000000000000000000000000000000000000815260040161055e90611f1c565b60405180910390fd5b806002015442106105ad576040517f08c379a00000000000000000000000000000000000000000000000000000000081526004016105a490611fae565b60405180910390fd5b8060040160405180604001604052808681526020016000815250908060018154018082558091505060019003906000526020600020906002020160009091909190915060008201518160000190816106059190612170565b50602082015181600101555050847fe83b2a43e7e82d975c8a0a6d2f045153c869e111136a34d1889ab7b598e396a3856040516106429190612242565b60405180910390a25050505050565b80806003600083815260200190815260200160002060000154146106aa576040517f08c379a00000000000000000000000000000000000000000000000000000000081526004016106a190611dd2565b60405180910390fd5b600060036000848152602001908152602001600020905080600301544211610707576040517f08c379a00000000000000000000000000000000000000000000000000000000081526004016106fe906122b0565b60405180910390fd5b60008160060160006101000a81548160ff021916908315150217905550827f86ab214b9941164ba2b8fa50046c3399316cf613517f781985e3180dbdb65bfd60405160405180910390a2505050565b606081806003600083815260200190815260200160002060000154146107b1576040517f08c379a00000000000000000000000000000000000000000000000000000000081526004016107a890611dd2565b60405180910390fd5b60036000848152602001908152602001600020600401805480602002602001604051908101604052809291908181526020016000905b828210156108b5578382906000526020600020906002020160405180604001604052908160008201805461081a90611d55565b80601f016020809104026020016040519081016040528092919081815260200182805461084690611d55565b80156108935780601f1061086857610100808354040283529160200191610893565b820191906000526020600020905b81548152906001019060200180831161087657829003601f168201915b50505050508152602001600182015481525050815260200190600101906107e7565b50505050915050919050565b60606000828060036000838152602001908152602001600020600001541461091e576040517f08c379a000000000000000000000000000000000000000000000000000000000815260040161091590611dd2565b60405180910390fd5b6000600360008681526020019081526020016000209050600081600401805490501161097f576040517f08c379a00000000000000000000000000000000000000000000000000000000081526004016109769061231c565b60405180910390fd5b60008060005b8360040180549050811015610af357828460040182815481106109ab576109aa61233c565b5b9060005260206000209060020201600101541115610aa8578360040181815481106109d9576109d861233c565b5b9060005260206000209060020201600101549250836004018181548110610a0357610a0261233c565b5b90600052602060002090600202016000018054610a1f90611d55565b80601f0160208091040260200160405190810160405280929190818152602001828054610a4b90611d55565b8015610a985780601f10610a6d57610100808354040283529160200191610a98565b820191906000526020600020905b815481529060010190602001808311610a7b57829003601f168201915b5050505050965060019150610ae6565b82846004018281548110610abf57610abe61233c565b5b90600052602060002090600202016001015403610ae5578180610ae19061239a565b9250505b5b8080600101915050610985565b506001811115610b1c576001604051806020016040528060008152509095509550505050610b27565b856000955095505050505b50915091565b610b3561140e565b610b3f6000611495565b565b60025481565b610b4f61140e565b828211610b91576040517f08c379a0000000000000000000000000000000000000000000000000000000008152600401610b8890612454565b60405180910390fd5b60006003600060025481526020019081526020016000209050600254816000018190555084816001019081610bc69190612170565b5083816002018190555082816003018190555060018160060160006101000a81548160ff021916908315150217905550338160060160016101000a81548173ffffffffffffffffffffffffffffffffffffffff021916908373ffffffffffffffffffffffffffffffffffffffff160217905550818160060160156101000a81548160ff0219169083151502179055503373ffffffffffffffffffffffffffffffffffffffff167fae0e5142bf9cd936e9f9a1f54c2a028be757e1116114dba08a755fc3eb7c637460025487878787604051610ca5959493929190612474565b60405180910390a260026000815480929190610cc09061239a565b91905055505050505050565b60008060009054906101000a900473ffffffffffffffffffffffffffffffffffffffff16905090565b610cfd61140e565b600073ffffffffffffffffffffffffffffffffffffffff168173ffffffffffffffffffffffffffffffffffffffff1603610d6c576040517f08c379a0000000000000000000000000000000000000000000000000000000008152600401610d639061251a565b60405180910390fd5b80600460006101000a81548173ffffffffffffffffffffffffffffffffffffffff021916908373ffffffffffffffffffffffffffffffffffffffff1602179055508073ffffffffffffffffffffffffffffffffffffffff167f747a2696976f554bbcd12629692eb7b1f4bd7acbd27877261f12d7154e1f303160405160405180910390a250565b60008180600360008381526020019081526020016000206000015414610e4e576040517f08c379a0000000000000000000000000000000000000000000000000000000008152600401610e4590611dd2565b60405180910390fd5b6003600084815260200190815260200160002060060160019054906101000a900473ffffffffffffffffffffffffffffffffffffffff16915050919050565b610e95611559565b8160036000828152602001908152602001600020600201544210158015610ed2575060036000828152602001908152602001600020600301544211155b610f11576040517f08c379a0000000000000000000000000000000000000000000000000000000008152600401610f08906125ac565b60405180910390fd5b6000600360008381526020019081526020016000206004018054905011610f6d576040517f08c379a0000000000000000000000000000000000000000000000000000000008152600401610f649061263e565b60405180910390fd5b8280600360008381526020019081526020016000206000015414610fc6576040517f08c379a0000000000000000000000000000000000000000000000000000000008152600401610fbd90611dd2565b60405180910390fd5b60006003600086815260200190815260200160002090508060050160003373ffffffffffffffffffffffffffffffffffffffff1673ffffffffffffffffffffffffffffffffffffffff16815260200190815260200160002060009054906101000a900460ff161561106c576040517f08c379a0000000000000000000000000000000000000000000000000000000008152600401611063906126aa565b60405180910390fd5b806004018054905084106110b5576040517f08c379a00000000000000000000000000000000000000000000000000000000081526004016110ac90612716565b60405180910390fd5b8060060160159054906101000a900460ff16156111a857600460009054906101000a900473ffffffffffffffffffffffffffffffffffffffff1673ffffffffffffffffffffffffffffffffffffffff1663f72c436f336040518263ffffffff1660e01b81526004016111279190611b9d565b602060405180830381865afa158015611144573d6000803e3d6000fd5b505050506040513d601f19601f82011682018060405250810190611168919061274b565b6111a7576040517f08c379a000000000000000000000000000000000000000000000000000000000815260040161119e90612810565b60405180910390fd5b5b60018160050160003373ffffffffffffffffffffffffffffffffffffffff1673ffffffffffffffffffffffffffffffffffffffff16815260200190815260200160002060006101000a81548160ff0219169083151502179055508060040184815481106112185761121761233c565b5b9060005260206000209060020201600101600081548092919061123a9061239a565b9190505550843373ffffffffffffffffffffffffffffffffffffffff167fb4cfecf70861b7b150d8337780d34fb4cbc2114b5fb1fe51a5c5fca1849f7274866040516112869190611ad3565b60405180910390a350505061129961159f565b5050565b600460009054906101000a900473ffffffffffffffffffffffffffffffffffffffff1681565b6000828060036000838152602001908152602001600020600001541461131e576040517f08c379a000000000000000000000000000000000000000000000000000000000815260040161131590611dd2565b60405180910390fd5b6003600085815260200190815260200160002060050160008473ffffffffffffffffffffffffffffffffffffffff1673ffffffffffffffffffffffffffffffffffffffff16815260200190815260200160002060009054906101000a900460ff1691505092915050565b61139061140e565b600073ffffffffffffffffffffffffffffffffffffffff168173ffffffffffffffffffffffffffffffffffffffff16036114025760006040517f1e4fbdf70000000000000000000000000000000000000000000000000000000081526004016113f99190611b9d565b60405180910390fd5b61140b81611495565b50565b6114166115a8565b73ffffffffffffffffffffffffffffffffffffffff16611434610ccc565b73ffffffffffffffffffffffffffffffffffffffff1614611493576114576115a8565b6040517f118cdaa700000000000000000000000000000000000000000000000000000000815260040161148a9190611b9d565b60405180910390fd5b565b60008060009054906101000a900473ffffffffffffffffffffffffffffffffffffffff169050816000806101000a81548173ffffffffffffffffffffffffffffffffffffffff021916908373ffffffffffffffffffffffffffffffffffffffff1602179055508173ffffffffffffffffffffffffffffffffffffffff168173ffffffffffffffffffffffffffffffffffffffff167f8be0079c531659141344cd1fd0a4f28419497f9722a3daafe3b4186f6b6457e060405160405180910390a35050565b600260015403611595576040517f3ee5aeb500000000000000000000000000000000000000000000000000000000815260040160405180910390fd5b6002600181905550565b60018081905550565b600033905090565b6000604051905090565b600080fd5b600080fd5b6000819050919050565b6115d7816115c4565b81146115e257600080fd5b50565b6000813590506115f4816115ce565b92915050565b6000602082840312156116105761160f6115ba565b5b600061161e848285016115e5565b91505092915050565b611630816115c4565b82525050565b600081519050919050565b600082825260208201905092915050565b60005b83811015611670578082015181840152602081019050611655565b60008484015250505050565b6000601f19601f8301169050919050565b600061169882611636565b6116a28185611641565b93506116b2818560208601611652565b6116bb8161167c565b840191505092915050565b60008115159050919050565b6116db816116c6565b82525050565b600073ffffffffffffffffffffffffffffffffffffffff82169050919050565b600061170c826116e1565b9050919050565b61171c81611701565b82525050565b600060e082019050611737600083018a611627565b8181036020830152611749818961168d565b90506117586040830188611627565b6117656060830187611627565b61177260808301866116d2565b61177f60a0830185611713565b61178c60c08301846116d2565b98975050505050505050565b600080fd5b600080fd5b7f4e487b7100000000000000000000000000000000000000000000000000000000600052604160045260246000fd5b6117da8261167c565b810181811067ffffffffffffffff821117156117f9576117f86117a2565b5b80604052505050565b600061180c6115b0565b905061181882826117d1565b919050565b600067ffffffffffffffff821115611838576118376117a2565b5b6118418261167c565b9050602081019050919050565b82818337600083830152505050565b600061187061186b8461181d565b611802565b90508281526020810184848401111561188c5761188b61179d565b5b61189784828561184e565b509392505050565b600082601f8301126118b4576118b3611798565b5b81356118c484826020860161185d565b91505092915050565b600080604083850312156118e4576118e36115ba565b5b60006118f2858286016115e5565b925050602083013567ffffffffffffffff811115611913576119126115bf565b5b61191f8582860161189f565b9150509250929050565b600081519050919050565b600082825260208201905092915050565b6000819050602082019050919050565b600082825260208201905092915050565b600061197182611636565b61197b8185611955565b935061198b818560208601611652565b6119948161167c565b840191505092915050565b6119a8816115c4565b82525050565b600060408301600083015184820360008601526119cb8282611966565b91505060208301516119e0602086018261199f565b508091505092915050565b60006119f783836119ae565b905092915050565b6000602082019050919050565b6000611a1782611929565b611a218185611934565b935083602082028501611a3385611945565b8060005b85811015611a6f5784840389528151611a5085826119eb565b9450611a5b836119ff565b925060208a01995050600181019050611a37565b50829750879550505050505092915050565b60006020820190508181036000830152611a9b8184611a0c565b905092915050565b60006040820190508181036000830152611abd818561168d565b9050611acc60208301846116d2565b9392505050565b6000602082019050611ae86000830184611627565b92915050565b611af7816116c6565b8114611b0257600080fd5b50565b600081359050611b1481611aee565b92915050565b60008060008060808587031215611b3457611b336115ba565b5b600085013567ffffffffffffffff811115611b5257611b516115bf565b5b611b5e8782880161189f565b9450506020611b6f878288016115e5565b9350506040611b80878288016115e5565b9250506060611b9187828801611b05565b91505092959194509250565b6000602082019050611bb26000830184611713565b92915050565b611bc181611701565b8114611bcc57600080fd5b50565b600081359050611bde81611bb8565b92915050565b600060208284031215611bfa57611bf96115ba565b5b6000611c0884828501611bcf565b91505092915050565b60008060408385031215611c2857611c276115ba565b5b6000611c36858286016115e5565b9250506020611c47858286016115e5565b9150509250929050565b6000819050919050565b6000611c76611c71611c6c846116e1565b611c51565b6116e1565b9050919050565b6000611c8882611c5b565b9050919050565b6000611c9a82611c7d565b9050919050565b611caa81611c8f565b82525050565b6000602082019050611cc56000830184611ca1565b92915050565b60008060408385031215611ce257611ce16115ba565b5b6000611cf0858286016115e5565b9250506020611d0185828601611bcf565b9150509250929050565b6000602082019050611d2060008301846116d2565b92915050565b7f4e487b7100000000000000000000000000000000000000000000000000000000600052602260045260246000fd5b60006002820490506001821680611d6d57607f821691505b602082108103611d8057611d7f611d26565b5b50919050565b7f53657373696f6e20646f6573206e6f7420657869737400000000000000000000600082015250565b6000611dbc601683611641565b9150611dc782611d86565b602082019050919050565b60006020820190508181036000830152611deb81611daf565b9050919050565b7f4f6e6c79207468652073657373696f6e2063726561746f722063616e2070657260008201527f666f726d207468697320616374696f6e00000000000000000000000000000000602082015250565b6000611e4e603083611641565b9150611e5982611df2565b604082019050919050565b60006020820190508181036000830152611e7d81611e41565b9050919050565b7f596f752063616e6e6f742061646420612063616e64696461746520746f20612060008201527f766f74696e672073657373696f6e20746861742068617320616c72656164792060208201527f656e6465642e0000000000000000000000000000000000000000000000000000604082015250565b6000611f06604683611641565b9150611f1182611e84565b606082019050919050565b60006020820190508181036000830152611f3581611ef9565b9050919050565b7f43616e646964617465732063616e6e6f7420626520616464656420647572696e60008201527f672074686520766f74696e6720706572696f642e000000000000000000000000602082015250565b6000611f98603483611641565b9150611fa382611f3c565b604082019050919050565b60006020820190508181036000830152611fc781611f8b565b9050919050565b60008190508160005260206000209050919050565b60006020601f8301049050919050565b600082821b905092915050565b6000600883026120307fffffffffffffffffffffffffffffffffffffffffffffffffffffffffffffffff82611ff3565b61203a8683611ff3565b95508019841693508086168417925050509392505050565b600061206d612068612063846115c4565b611c51565b6115c4565b9050919050565b6000819050919050565b61208783612052565b61209b61209382612074565b848454612000565b825550505050565b600090565b6120b06120a3565b6120bb81848461207e565b505050565b5b818110156120df576120d46000826120a8565b6001810190506120c1565b5050565b601f821115612124576120f581611fce565b6120fe84611fe3565b8101602085101561210d578190505b61212161211985611fe3565b8301826120c0565b50505b505050565b600082821c905092915050565b600061214760001984600802612129565b1980831691505092915050565b60006121608383612136565b9150826002028217905092915050565b61217982611636565b67ffffffffffffffff811115612192576121916117a2565b5b61219c8254611d55565b6121a78282856120e3565b600060209050601f8311600181146121da57600084156121c8578287015190505b6121d28582612154565b86555061223a565b601f1984166121e886611fce565b60005b82811015612210578489015182556001820191506020850194506020810190506121eb565b8683101561222d5784890151612229601f891682612136565b8355505b6001600288020188555050505b505050505050565b6000602082019050818103600083015261225c818461168d565b905092915050565b7f43616e6e6f742061726368697665206163746976652073657373696f6e000000600082015250565b600061229a601d83611641565b91506122a582612264565b602082019050919050565b600060208201905081810360008301526122c98161228d565b9050919050565b7f4e6f2063616e6469646174657320696e207468652073657373696f6e00000000600082015250565b6000612306601c83611641565b9150612311826122d0565b602082019050919050565b60006020820190508181036000830152612335816122f9565b9050919050565b7f4e487b7100000000000000000000000000000000000000000000000000000000600052603260045260246000fd5b7f4e487b7100000000000000000000000000000000000000000000000000000000600052601160045260246000fd5b60006123a5826115c4565b91507fffffffffffffffffffffffffffffffffffffffffffffffffffffffffffffffff82036123d7576123d661236b565b5b600182019050919050565b7f456e642074696d65206d7573742062652061667465722073746172742074696d60008201527f6500000000000000000000000000000000000000000000000000000000000000602082015250565b600061243e602183611641565b9150612449826123e2565b604082019050919050565b6000602082019050818103600083015261246d81612431565b9050919050565b600060a0820190506124896000830188611627565b818103602083015261249b818761168d565b90506124aa6040830186611627565b6124b76060830185611627565b6124c460808301846116d2565b9695505050505050565b7f496e76616c6964206465636f6465722061646472657373000000000000000000600082015250565b6000612504601783611641565b915061250f826124ce565b602082019050919050565b60006020820190508181036000830152612533816124f7565b9050919050565b7f566f74696e67206973206e6f742061637469766520666f72207468697320736560008201527f7373696f6e000000000000000000000000000000000000000000000000000000602082015250565b6000612596602583611641565b91506125a18261253a565b604082019050919050565b600060208201905081810360008301526125c581612589565b9050919050565b7f53657373696f6e2063616e6e6f7420737461727420776974686f75742063616e60008201527f6469646174657300000000000000000000000000000000000000000000000000602082015250565b6000612628602783611641565b9150612633826125cc565b604082019050919050565b600060208201905081810360008301526126578161261b565b9050919050565b7f596f75206861766520616c726561647920766f74656400000000000000000000600082015250565b6000612694601683611641565b915061269f8261265e565b602082019050919050565b600060208201905081810360008301526126c381612687565b9050919050565b7f496e76616c69642063616e646964617465204944000000000000000000000000600082015250565b6000612700601483611641565b915061270b826126ca565b602082019050919050565b6000602082019050818103600083015261272f816126f3565b9050919050565b60008151905061274581611aee565b92915050565b600060208284031215612761576127606115ba565b5b600061276f84828501612736565b91505092915050565b7f476974636f696e2050617373706f72742072657175697265643a20796f75722060008201527f73636f72652069732062656c6f7720746865207468726573686f6c642e20566960208201527f7369742070617373706f72742e78797a20746f207665726966792e0000000000604082015250565b60006127fa605b83611641565b915061280582612778565b606082019050919050565b60006020820190508181036000830152612829816127ed565b905091905056fea2646970667358221220be497412e7dc092c0ca03fb7f44ac9620bc6f15892e8955cd9584e9fd7c9b64564736f6c634300081c0033",
          "opcodes": "PUSH1 0x80 PUSH1 0x40 MSTORE CALLVALUE DUP1 ISZERO PUSH2 0x10 JUMPI PUSH1 0x0 DUP1 REVERT JUMPDEST POP PUSH1 0x40 MLOAD PUSH2 0x2AF6 CODESIZE SUB DUP1 PUSH2 0x2AF6 DUP4 CODECOPY DUP2 DUP2 ADD PUSH1 0x40 MSTORE DUP2 ADD SWAP1 PUSH2 0x32 SWAP2 SWAP1 PUSH2 0x22A JUMP JUMPDEST CALLER PUSH1 0x0 PUSH20 0xFFFFFFFFFFFFFFFFFFFFFFFFFFFFFFFFFFFFFFFF AND DUP2 PUSH20 0xFFFFFFFFFFFFFFFFFFFFFFFFFFFFFFFFFFFFFFFF AND SUB PUSH2 0xA5 JUMPI PUSH1 0x0 PUSH1 0x40 MLOAD PUSH32 0x1E4FBDF700000000000000000000000000000000000000000000000000000000 DUP2 MSTORE PUSH1 0x4 ADD PUSH2 0x9C SWAP2 SWAP1 PUSH2 0x266 JUMP JUMPDEST PUSH1 0x40 MLOAD DUP1 SWAP2 SUB SWAP1 REVERT JUMPDEST PUSH2 0xB4 DUP2 PUSH2 0x103 PUSH1 0x20 SHL PUSH1 0x20 SHR JUMP JUMPDEST POP PUSH1 0x1 DUP1 DUP2 SWAP1 SSTORE POP DUP1 PUSH1 0x4 PUSH1 0x0 PUSH2 0x100 EXP DUP2 SLOAD DUP2 PUSH20 0xFFFFFFFFFFFFFFFFFFFFFFFFFFFFFFFFFFFFFFFF MUL NOT AND SWAP1 DUP4 PUSH20 0xFFFFFFFFFFFFFFFFFFFFFFFFFFFFFFFFFFFFFFFF AND MUL OR SWAP1 SSTORE POP POP PUSH2 0x281 JUMP JUMPDEST PUSH1 0x0 DUP1 PUSH1 0x0 SWAP1 SLOAD SWAP1 PUSH2 0x100 EXP SWAP1 DIV PUSH20 0xFFFFFFFFFFFFFFFFFFFFFFFFFFFFFFFFFFFFFFFF AND SWAP1 POP DUP2 PUSH1 0x0 DUP1 PUSH2 0x100 EXP DUP2 SLOAD DUP2 PUSH20 0xFFFFFFFFFFFFFFFFFFFFFFFFFFFFFFFFFFFFFFFF MUL NOT AND SWAP1 DUP4 PUSH20 0xFFFFFFFFFFFFFFFFFFFFFFFFFFFFFFFFFFFFFFFF AND MUL OR SWAP1 SSTORE POP DUP2 PUSH20 0xFFFFFFFFFFFFFFFFFFFFFFFFFFFFFFFFFFFFFFFF AND DUP2 PUSH20 0xFFFFFFFFFFFFFFFFFFFFFFFFFFFFFFFFFFFFFFFF AND PUSH32 0x8BE0079C531659141344CD1FD0A4F28419497F9722A3DAAFE3B4186F6B6457E0 PUSH1 0x40 MLOAD PUSH1 0x40 MLOAD DUP1 SWAP2 SUB SWAP1 LOG3 POP POP JUMP JUMPDEST PUSH1 0x0 DUP1 REVERT JUMPDEST PUSH1 0x0 PUSH20 0xFFFFFFFFFFFFFFFFFFFFFFFFFFFFFFFFFFFFFFFF DUP3 AND SWAP1 POP SWAP2 SWAP1 POP JUMP JUMPDEST PUSH1 0x0 PUSH2 0x1F7 DUP3 PUSH2 0x1CC JUMP JUMPDEST SWAP1 POP SWAP2 SWAP1 POP JUMP JUMPDEST PUSH2 0x207 DUP2 PUSH2 0x1EC JUMP JUMPDEST DUP2 EQ PUSH2 0x212 JUMPI PUSH1 0x0 DUP1 REVERT JUMPDEST POP JUMP JUMPDEST PUSH1 0x0 DUP2 MLOAD SWAP1 POP PUSH2 0x224 DUP2 PUSH2 0x1FE JUMP JUMPDEST SWAP3 SWAP2 POP POP JUMP JUMPDEST PUSH1 0x0 PUSH1 0x20 DUP3 DUP5 SUB SLT ISZERO PUSH2 0x240 JUMPI PUSH2 0x23F PUSH2 0x1C7 JUMP JUMPDEST JUMPDEST PUSH1 0x0 PUSH2 0x24E DUP5 DUP3 DUP6 ADD PUSH2 0x215 JUMP JUMPDEST SWAP2 POP POP SWAP3 SWAP2 POP POP JUMP JUMPDEST PUSH2 0x260 DUP2 PUSH2 0x1EC JUMP JUMPDEST DUP3 MSTORE POP POP JUMP JUMPDEST PUSH1 0x0 PUSH1 0x20 DUP3 ADD SWAP1 POP PUSH2 0x27B PUSH1 0x0 DUP4 ADD DUP5 PUSH2 0x257 JUMP JUMPDEST SWAP3 SWAP2 POP POP JUMP JUMPDEST PUSH2 0x2866 DUP1 PUSH2 0x290 PUSH1 0x0 CODECOPY PUSH1 0x0 RETURN INVALID PUSH1 0x80 PUSH1 0x40 MSTORE CALLVALUE DUP1 ISZERO PUSH2 0x10 JUMPI PUSH1 0x0 DUP1 REVERT JUMPDEST POP PUSH1 0x4 CALLDATASIZE LT PUSH2 0xF5 JUMPI PUSH1 0x0 CALLDATALOAD PUSH1 0xE0 SHR DUP1 PUSH4 0x84DEC12B GT PUSH2 0x97 JUMPI DUP1 PUSH4 0xB384ABEF GT PUSH2 0x66 JUMPI DUP1 PUSH4 0xB384ABEF EQ PUSH2 0x277 JUMPI DUP1 PUSH4 0xD237884E EQ PUSH2 0x293 JUMPI DUP1 PUSH4 0xDC296AE1 EQ PUSH2 0x2B1 JUMPI DUP1 PUSH4 0xF2FDE38B EQ PUSH2 0x2E1 JUMPI PUSH2 0xF5 JUMP JUMPDEST DUP1 PUSH4 0x84DEC12B EQ PUSH2 0x1F1 JUMPI DUP1 PUSH4 0x8DA5CB5B EQ PUSH2 0x20D JUMPI DUP1 PUSH4 0x978137D2 EQ PUSH2 0x22B JUMPI DUP1 PUSH4 0xAA6F22F5 EQ PUSH2 0x247 JUMPI PUSH2 0xF5 JUMP JUMPDEST DUP1 PUSH4 0x3E39A7A5 GT PUSH2 0xD3 JUMPI DUP1 PUSH4 0x3E39A7A5 EQ PUSH2 0x168 JUMPI DUP1 PUSH4 0x4129B2C9 EQ PUSH2 0x198 JUMPI DUP1 PUSH4 0x715018A6 EQ PUSH2 0x1C9 JUMPI DUP1 PUSH4 0x73CD8336 EQ PUSH2 0x1D3 JUMPI PUSH2 0xF5 JUMP JUMPDEST DUP1 PUSH4 0x1186EB7C EQ PUSH2 0xFA JUMPI DUP1 PUSH4 0x1750A3D0 EQ PUSH2 0x130 JUMPI DUP1 PUSH4 0x3544BFEA EQ PUSH2 0x14C JUMPI JUMPDEST PUSH1 0x0 DUP1 REVERT JUMPDEST PUSH2 0x114 PUSH1 0x4 DUP1 CALLDATASIZE SUB DUP2 ADD SWAP1 PUSH2 0x10F SWAP2 SWAP1 PUSH2 0x15FA JUMP JUMPDEST PUSH2 0x2FD JUMP JUMPDEST PUSH1 0x40 MLOAD PUSH2 0x127 SWAP8 SWAP7 SWAP6 SWAP5 SWAP4 SWAP3 SWAP2 SWAP1 PUSH2 0x1722 JUMP JUMPDEST PUSH1 0x40 MLOAD DUP1 SWAP2 SUB SWAP1 RETURN JUMPDEST PUSH2 0x14A PUSH1 0x4 DUP1 CALLDATASIZE SUB DUP2 ADD SWAP1 PUSH2 0x145 SWAP2 SWAP1 PUSH2 0x18CD JUMP JUMPDEST PUSH2 0x401 JUMP JUMPDEST STOP JUMPDEST PUSH2 0x166 PUSH1 0x4 DUP1 CALLDATASIZE SUB DUP2 ADD SWAP1 PUSH2 0x161 SWAP2 SWAP1 PUSH2 0x15FA JUMP JUMPDEST PUSH2 0x651 JUMP JUMPDEST STOP JUMPDEST PUSH2 0x182 PUSH1 0x4 DUP1 CALLDATASIZE SUB DUP2 ADD SWAP1 PUSH2 0x17D SWAP2 SWAP1 PUSH2 0x15FA JUMP JUMPDEST PUSH2 0x756 JUMP JUMPDEST PUSH1 0x40 MLOAD PUSH2 0x18F SWAP2 SWAP1 PUSH2 0x1A81 JUMP JUMPDEST PUSH1 0x40 MLOAD DUP1 SWAP2 SUB SWAP1 RETURN JUMPDEST PUSH2 0x1B2 PUSH1 0x4 DUP1 CALLDATASIZE SUB DUP2 ADD SWAP1 PUSH2 0x1AD SWAP2 SWAP1 PUSH2 0x15FA JUMP JUMPDEST PUSH2 0x8C1 JUMP JUMPDEST PUSH1 0x40 MLOAD PUSH2 0x1C0 SWAP3 SWAP2 SWAP1 PUSH2 0x1AA3 JUMP JUMPDEST PUSH1 0x40 MLOAD DUP1 SWAP2 SUB SWAP1 RETURN JUMPDEST PUSH2 0x1D1 PUSH2 0xB2D JUMP JUMPDEST STOP JUMPDEST PUSH2 0x1DB PUSH2 0xB41 JUMP JUMPDEST PUSH1 0x40 MLOAD PUSH2 0x1E8 SWAP2 SWAP1 PUSH2 0x1AD3 JUMP JUMPDEST PUSH1 0x40 MLOAD DUP1 SWAP2 SUB SWAP1 RETURN JUMPDEST PUSH2 0x20B PUSH1 0x4 DUP1 CALLDATASIZE SUB DUP2 ADD SWAP1 PUSH2 0x206 SWAP2 SWAP1 PUSH2 0x1B1A JUMP JUMPDEST PUSH2 0xB47 JUMP JUMPDEST STOP JUMPDEST PUSH2 0x215 PUSH2 0xCCC JUMP JUMPDEST PUSH1 0x40 MLOAD PUSH2 0x222 SWAP2 SWAP1 PUSH2 0x1B9D JUMP JUMPDEST PUSH1 0x40 MLOAD DUP1 SWAP2 SUB SWAP1 RETURN JUMPDEST PUSH2 0x245 PUSH1 0x4 DUP1 CALLDATASIZE SUB DUP2 ADD SWAP1 PUSH2 0x240 SWAP2 SWAP1 PUSH2 0x1BE4 JUMP JUMPDEST PUSH2 0xCF5 JUMP JUMPDEST STOP JUMPDEST PUSH2 0x261 PUSH1 0x4 DUP1 CALLDATASIZE SUB DUP2 ADD SWAP1 PUSH2 0x25C SWAP2 SWAP1 PUSH2 0x15FA JUMP JUMPDEST PUSH2 0xDF3 JUMP JUMPDEST PUSH1 0x40 MLOAD PUSH2 0x26E SWAP2 SWAP1 PUSH2 0x1B9D JUMP JUMPDEST PUSH1 0x40 MLOAD DUP1 SWAP2 SUB SWAP1 RETURN JUMPDEST PUSH2 0x291 PUSH1 0x4 DUP1 CALLDATASIZE SUB DUP2 ADD SWAP1 PUSH2 0x28C SWAP2 SWAP1 PUSH2 0x1C11 JUMP JUMPDEST PUSH2 0xE8D JUMP JUMPDEST STOP JUMPDEST PUSH2 0x29B PUSH2 0x129D JUMP JUMPDEST PUSH1 0x40 MLOAD PUSH2 0x2A8 SWAP2 SWAP1 PUSH2 0x1CB0 JUMP JUMPDEST PUSH1 0x40 MLOAD DUP1 SWAP2 SUB SWAP1 RETURN JUMPDEST PUSH2 0x2CB PUSH1 0x4 DUP1 CALLDATASIZE SUB DUP2 ADD SWAP1 PUSH2 0x2C6 SWAP2 SWAP1 PUSH2 0x1CCB JUMP JUMPDEST PUSH2 0x12C3 JUMP JUMPDEST PUSH1 0x40 MLOAD PUSH2 0x2D8 SWAP2 SWAP1 PUSH2 0x1D0B JUMP JUMPDEST PUSH1 0x40 MLOAD DUP1 SWAP2 SUB SWAP1 RETURN JUMPDEST PUSH2 0x2FB PUSH1 0x4 DUP1 CALLDATASIZE SUB DUP2 ADD SWAP1 PUSH2 0x2F6 SWAP2 SWAP1 PUSH2 0x1BE4 JUMP JUMPDEST PUSH2 0x1388 JUMP JUMPDEST STOP JUMPDEST PUSH1 0x3 PUSH1 0x20 MSTORE DUP1 PUSH1 0x0 MSTORE PUSH1 0x40 PUSH1 0x0 KECCAK256 PUSH1 0x0 SWAP2 POP SWAP1 POP DUP1 PUSH1 0x0 ADD SLOAD SWAP1 DUP1 PUSH1 0x1 ADD DUP1 SLOAD PUSH2 0x326 SWAP1 PUSH2 0x1D55 JUMP JUMPDEST DUP1 PUSH1 0x1F ADD PUSH1 0x20 DUP1 SWAP2 DIV MUL PUSH1 0x20 ADD PUSH1 0x40 MLOAD SWAP1 DUP2 ADD PUSH1 0x40 MSTORE DUP1 SWAP3 SWAP2 SWAP1 DUP2 DUP2 MSTORE PUSH1 0x20 ADD DUP3 DUP1 SLOAD PUSH2 0x352 SWAP1 PUSH2 0x1D55 JUMP JUMPDEST DUP1 ISZERO PUSH2 0x39F JUMPI DUP1 PUSH1 0x1F LT PUSH2 0x374 JUMPI PUSH2 0x100 DUP1 DUP4 SLOAD DIV MUL DUP4 MSTORE SWAP2 PUSH1 0x20 ADD SWAP2 PUSH2 0x39F JUMP JUMPDEST DUP3 ADD SWAP2 SWAP1 PUSH1 0x0 MSTORE PUSH1 0x20 PUSH1 0x0 KECCAK256 SWAP1 JUMPDEST DUP2 SLOAD DUP2 MSTORE SWAP1 PUSH1 0x1 ADD SWAP1 PUSH1 0x20 ADD DUP1 DUP4 GT PUSH2 0x382 JUMPI DUP3 SWAP1 SUB PUSH1 0x1F AND DUP3 ADD SWAP2 JUMPDEST POP POP POP POP POP SWAP1 DUP1 PUSH1 0x2 ADD SLOAD SWAP1 DUP1 PUSH1 0x3 ADD SLOAD SWAP1 DUP1 PUSH1 0x6 ADD PUSH1 0x0 SWAP1 SLOAD SWAP1 PUSH2 0x100 EXP SWAP1 DIV PUSH1 0xFF AND SWAP1 DUP1 PUSH1 0x6 ADD PUSH1 0x1 SWAP1 SLOAD SWAP1 PUSH2 0x100 EXP SWAP1 DIV PUSH20 0xFFFFFFFFFFFFFFFFFFFFFFFFFFFFFFFFFFFFFFFF AND SWAP1 DUP1 PUSH1 0x6 ADD PUSH1 0x15 SWAP1 SLOAD SWAP1 PUSH2 0x100 EXP SWAP1 DIV PUSH1 0xFF AND SWAP1 POP DUP8 JUMP JUMPDEST DUP2 DUP1 PUSH1 0x3 PUSH1 0x0 DUP4 DUP2 MSTORE PUSH1 0x20 ADD SWAP1 DUP2 MSTORE PUSH1 0x20 ADD PUSH1 0x0 KECCAK256 PUSH1 0x0 ADD SLOAD EQ PUSH2 0x45A JUMPI PUSH1 0x40 MLOAD PUSH32 0x8C379A000000000000000000000000000000000000000000000000000000000 DUP2 MSTORE PUSH1 0x4 ADD PUSH2 0x451 SWAP1 PUSH2 0x1DD2 JUMP JUMPDEST PUSH1 0x40 MLOAD DUP1 SWAP2 SUB SWAP1 REVERT JUMPDEST DUP3 PUSH1 0x3 PUSH1 0x0 DUP3 DUP2 MSTORE PUSH1 0x20 ADD SWAP1 DUP2 MSTORE PUSH1 0x20 ADD PUSH1 0x0 KECCAK256 PUSH1 0x6 ADD PUSH1 0x1 SWAP1 SLOAD SWAP1 PUSH2 0x100 EXP SWAP1 DIV PUSH20 0xFFFFFFFFFFFFFFFFFFFFFFFFFFFFFFFFFFFFFFFF AND PUSH20 0xFFFFFFFFFFFFFFFFFFFFFFFFFFFFFFFFFFFFFFFF AND CALLER PUSH20 0xFFFFFFFFFFFFFFFFFFFFFFFFFFFFFFFFFFFFFFFF AND EQ PUSH2 0x4FF JUMPI PUSH1 0x40 MLOAD PUSH32 0x8C379A000000000000000000000000000000000000000000000000000000000 DUP2 MSTORE PUSH1 0x4 ADD PUSH2 0x4F6 SWAP1 PUSH2 0x1E64 JUMP JUMPDEST PUSH1 0x40 MLOAD DUP1 SWAP2 SUB SWAP1 REVERT JUMPDEST PUSH1 0x0 PUSH1 0x3 PUSH1 0x0 DUP7 DUP2 MSTORE PUSH1 0x20 ADD SWAP1 DUP2 MSTORE PUSH1 0x20 ADD PUSH1 0x0 KECCAK256 SWAP1 POP DUP1 PUSH1 0x6 ADD PUSH1 0x0 SWAP1 SLOAD SWAP1 PUSH2 0x100 EXP SWAP1 DIV PUSH1 0xFF AND PUSH2 0x567 JUMPI PUSH1 0x40 MLOAD PUSH32 0x8C379A000000000000000000000000000000000000000000000000000000000 DUP2 MSTORE PUSH1 0x4 ADD PUSH2 0x55E SWAP1 PUSH2 0x1F1C JUMP JUMPDEST PUSH1 0x40 MLOAD DUP1 SWAP2 SUB SWAP1 REVERT JUMPDEST DUP1 PUSH1 0x2 ADD SLOAD TIMESTAMP LT PUSH2 0x5AD JUMPI PUSH1 0x40 MLOAD PUSH32 0x8C379A000000000000000000000000000000000000000000000000000000000 DUP2 MSTORE PUSH1 0x4 ADD PUSH2 0x5A4 SWAP1 PUSH2 0x1FAE JUMP JUMPDEST PUSH1 0x40 MLOAD DUP1 SWAP2 SUB SWAP1 REVERT JUMPDEST DUP1 PUSH1 0x4 ADD PUSH1 0x40 MLOAD DUP1 PUSH1 0x40 ADD PUSH1 0x40 MSTORE DUP1 DUP7 DUP2 MSTORE PUSH1 0x20 ADD PUSH1 0x0 DUP2 MSTORE POP SWAP1 DUP1 PUSH1 0x1 DUP2 SLOAD ADD DUP1 DUP3 SSTORE DUP1 SWAP2 POP POP PUSH1 0x1 SWAP1 SUB SWAP1 PUSH1 0x0 MSTORE PUSH1 0x20 PUSH1 0x0 KECCAK256 SWAP1 PUSH1 0x2 MUL ADD PUSH1 0x0 SWAP1 SWAP2 SWAP1 SWAP2 SWAP1 SWAP2 POP PUSH1 0x0 DUP3 ADD MLOAD DUP2 PUSH1 0x0 ADD SWAP1 DUP2 PUSH2 0x605 SWAP2 SWAP1 PUSH2 0x2170 JUMP JUMPDEST POP PUSH1 0x20 DUP3 ADD MLOAD DUP2 PUSH1 0x1 ADD SSTORE POP POP DUP5 PUSH32 0xE83B2A43E7E82D975C8A0A6D2F045153C869E111136A34D1889AB7B598E396A3 DUP6 PUSH1 0x40 MLOAD PUSH2 0x642 SWAP2 SWAP1 PUSH2 0x2242 JUMP JUMPDEST PUSH1 0x40 MLOAD DUP1 SWAP2 SUB SWAP1 LOG2 POP POP POP POP POP JUMP JUMPDEST DUP1 DUP1 PUSH1 0x3 PUSH1 0x0 DUP4 DUP2 MSTORE PUSH1 0x20 ADD SWAP1 DUP2 MSTORE PUSH1 0x20 ADD PUSH1 0x0 KECCAK256 PUSH1 0x0 ADD SLOAD EQ PUSH2 0x6AA JUMPI PUSH1 0x40 MLOAD PUSH32 0x8C379A000000000000000000000000000000000000000000000000000000000 DUP2 MSTORE PUSH1 0x4 ADD PUSH2 0x6A1 SWAP1 PUSH2 0x1DD2 JUMP JUMPDEST PUSH1 0x40 MLOAD DUP1 SWAP2 SUB SWAP1 REVERT JUMPDEST PUSH1 0x0 PUSH1 0x3 PUSH1 0x0 DUP5 DUP2 MSTORE PUSH1 0x20 ADD SWAP1 DUP2 MSTORE PUSH1 0x20 ADD PUSH1 0x0 KECCAK256 SWAP1 POP DUP1 PUSH1 0x3 ADD SLOAD TIMESTAMP GT PUSH2 0x707 JUMPI PUSH1 0x40 MLOAD PUSH32 0x8C379A000000000000000000000000000000000000000000000000000000000 DUP2 MSTORE PUSH1 0x4 ADD PUSH2 0x6FE SWAP1 PUSH2 0x22B0 JUMP JUMPDEST PUSH1 0x40 MLOAD DUP1 SWAP2 SUB SWAP1 REVERT JUMPDEST PUSH1 0x0 DUP2 PUSH1 0x6 ADD PUSH1 0x0 PUSH2 0x100 EXP DUP2 SLOAD DUP2 PUSH1 0xFF MUL NOT AND SWAP1 DUP4 ISZERO ISZERO MUL OR SWAP1 SSTORE POP DUP3 PUSH32 0x86AB214B9941164BA2B8FA50046C3399316CF613517F781985E3180DBDB65BFD PUSH1 0x40 MLOAD PUSH1 0x40 MLOAD DUP1 SWAP2 SUB SWAP1 LOG2 POP POP POP JUMP JUMPDEST PUSH1 0x60 DUP2 DUP1 PUSH1 0x3 PUSH1 0x0 DUP4 DUP2 MSTORE PUSH1 0x20 ADD SWAP1 DUP2 MSTORE PUSH1 0x20 ADD PUSH1 0x0 KECCAK256 PUSH1 0x0 ADD SLOAD EQ PUSH2 0x7B1 JUMPI PUSH1 0x40 MLOAD PUSH32 0x8C379A000000000000000000000000000000000000000000000000000000000 DUP2 MSTORE PUSH1 0x4 ADD PUSH2 0x7A8 SWAP1 PUSH2 0x1DD2 JUMP JUMPDEST PUSH1 0x40 MLOAD DUP1 SWAP2 SUB SWAP1 REVERT JUMPDEST PUSH1 0x3 PUSH1 0x0 DUP5 DUP2 MSTORE PUSH1 0x20 ADD SWAP1 DUP2 MSTORE PUSH1 0x20 ADD PUSH1 0x0 KECCAK256 PUSH1 0x4 ADD DUP1 SLOAD DUP1 PUSH1 0x20 MUL PUSH1 0x20 ADD PUSH1 0x40 MLOAD SWAP1 DUP2 ADD PUSH1 0x40 MSTORE DUP1 SWAP3 SWAP2 SWAP1 DUP2 DUP2 MSTORE PUSH1 0x20 ADD PUSH1 0x0 SWAP1 JUMPDEST DUP3 DUP3 LT ISZERO PUSH2 0x8B5 JUMPI DUP4 DUP3 SWAP1 PUSH1 0x0 MSTORE PUSH1 0x20 PUSH1 0x0 KECCAK256 SWAP1 PUSH1 0x2 MUL ADD PUSH1 0x40 MLOAD DUP1 PUSH1 0x40 ADD PUSH1 0x40 MSTORE SWAP1 DUP2 PUSH1 0x0 DUP3 ADD DUP1 SLOAD PUSH2 0x81A SWAP1 PUSH2 0x1D55 JUMP JUMPDEST DUP1 PUSH1 0x1F ADD PUSH1 0x20 DUP1 SWAP2 DIV MUL PUSH1 0x20 ADD PUSH1 0x40 MLOAD SWAP1 DUP2 ADD PUSH1 0x40 MSTORE DUP1 SWAP3 SWAP2 SWAP1 DUP2 DUP2 MSTORE PUSH1 0x20 ADD DUP3 DUP1 SLOAD PUSH2 0x846 SWAP1 PUSH2 0x1D55 JUMP JUMPDEST DUP1 ISZERO PUSH2 0x893 JUMPI DUP1 PUSH1 0x1F LT PUSH2 0x868 JUMPI PUSH2 0x100 DUP1 DUP4 SLOAD DIV MUL DUP4 MSTORE SWAP2 PUSH1 0x20 ADD SWAP2 PUSH2 0x893 JUMP JUMPDEST DUP3 ADD SWAP2 SWAP1 PUSH1 0x0 MSTORE PUSH1 0x20 PUSH1 0x0 KECCAK256 SWAP1 JUMPDEST DUP2 SLOAD DUP2 MSTORE SWAP1 PUSH1 0x1 ADD SWAP1 PUSH1 0x20 ADD DUP1 DUP4 GT PUSH2 0x876 JUMPI DUP3 SWAP1 SUB PUSH1 0x1F AND DUP3 ADD SWAP2 JUMPDEST POP POP POP POP POP DUP2 MSTORE PUSH1 0x20 ADD PUSH1 0x1 DUP3 ADD SLOAD DUP2 MSTORE POP POP DUP2 MSTORE PUSH1 0x20 ADD SWAP1 PUSH1 0x1 ADD SWAP1 PUSH2 0x7E7 JUMP JUMPDEST POP POP POP POP SWAP2 POP POP SWAP2 SWAP1 POP JUMP JUMPDEST PUSH1 0x60 PUSH1 0x0 DUP3 DUP1 PUSH1 0x3 PUSH1 0x0 DUP4 DUP2 MSTORE PUSH1 0x20 ADD SWAP1 DUP2 MSTORE PUSH1 0x20 ADD PUSH1 0x0 KECCAK256 PUSH1 0x0 ADD SLOAD EQ PUSH2 0x91E JUMPI PUSH1 0x40 MLOAD PUSH32 0x8C379A000000000000000000000000000000000000000000000000000000000 DUP2 MSTORE PUSH1 0x4 ADD PUSH2 0x915 SWAP1 PUSH2 0x1DD2 JUMP JUMPDEST PUSH1 0x40 MLOAD DUP1 SWAP2 SUB SWAP1 REVERT JUMPDEST PUSH1 0x0 PUSH1 0x3 PUSH1 0x0 DUP7 DUP2 MSTORE PUSH1 0x20 ADD SWAP1 DUP2 MSTORE PUSH1 0x20 ADD PUSH1 0x0 KECCAK256 SWAP1 POP PUSH1 0x0 DUP2 PUSH1 0x4 ADD DUP1 SLOAD SWAP1 POP GT PUSH2 0x97F JUMPI PUSH1 0x40 MLOAD PUSH32 0x8C379A000000000000000000000000000000000000000000000000000000000 DUP2 MSTORE PUSH1 0x4 ADD PUSH2 0x976 SWAP1 PUSH2 0x231C JUMP JUMPDEST PUSH1 0x40 MLOAD DUP1 SWAP2 SUB SWAP1 REVERT JUMPDEST PUSH1 0x0 DUP1 PUSH1 0x0 JUMPDEST DUP4 PUSH1 0x4 ADD DUP1 SLOAD SWAP1 POP DUP2 LT ISZERO PUSH2 0xAF3 JUMPI DUP3 DUP5 PUSH1 0x4 ADD DUP3 DUP2 SLOAD DUP2 LT PUSH2 0x9AB JUMPI PUSH2 0x9AA PUSH2 0x233C JUMP JUMPDEST JUMPDEST SWAP1 PUSH1 0x0 MSTORE PUSH1 0x20 PUSH1 0x0 KECCAK256 SWAP1 PUSH1 0x2 MUL ADD PUSH1 0x1 ADD SLOAD GT ISZERO PUSH2 0xAA8 JUMPI DUP4 PUSH1 0x4 ADD DUP2 DUP2 SLOAD DUP2 LT PUSH2 0x9D9 JUMPI PUSH2 0x9D8 PUSH2 0x233C JUMP JUMPDEST JUMPDEST SWAP1 PUSH1 0x0 MSTORE PUSH1 0x20 PUSH1 0x0 KECCAK256 SWAP1 PUSH1 0x2 MUL ADD PUSH1 0x1 ADD SLOAD SWAP3 POP DUP4 PUSH1 0x4 ADD DUP2 DUP2 SLOAD DUP2 LT PUSH2 0xA03 JUMPI PUSH2 0xA02 PUSH2 0x233C JUMP JUMPDEST JUMPDEST SWAP1 PUSH1 0x0 MSTORE PUSH1 0x20 PUSH1 0x0 KECCAK256 SWAP1 PUSH1 0x2 MUL ADD PUSH1 0x0 ADD DUP1 SLOAD PUSH2 0xA1F SWAP1 PUSH2 0x1D55 JUMP JUMPDEST DUP1 PUSH1 0x1F ADD PUSH1 0x20 DUP1 SWAP2 DIV MUL PUSH1 0x20 ADD PUSH1 0x40 MLOAD SWAP1 DUP2 ADD PUSH1 0x40 MSTORE DUP1 SWAP3 SWAP2 SWAP1 DUP2 DUP2 MSTORE PUSH1 0x20 ADD DUP3 DUP1 SLOAD PUSH2 0xA4B SWAP1 PUSH2 0x1D55 JUMP JUMPDEST DUP1 ISZERO PUSH2 0xA98 JUMPI DUP1 PUSH1 0x1F LT PUSH2 0xA6D JUMPI PUSH2 0x100 DUP1 DUP4 SLOAD DIV MUL DUP4 MSTORE SWAP2 PUSH1 0x20 ADD SWAP2 PUSH2 0xA98 JUMP JUMPDEST DUP3 ADD SWAP2 SWAP1 PUSH1 0x0 MSTORE PUSH1 0x20 PUSH1 0x0 KECCAK256 SWAP1 JUMPDEST DUP2 SLOAD DUP2 MSTORE SWAP1 PUSH1 0x1 ADD SWAP1 PUSH1 0x20 ADD DUP1 DUP4 GT PUSH2 0xA7B JUMPI DUP3 SWAP1 SUB PUSH1 0x1F AND DUP3 ADD SWAP2 JUMPDEST POP POP POP POP POP SWAP7 POP PUSH1 0x1 SWAP2 POP PUSH2 0xAE6 JUMP JUMPDEST DUP3 DUP5 PUSH1 0x4 ADD DUP3 DUP2 SLOAD DUP2 LT PUSH2 0xABF JUMPI PUSH2 0xABE PUSH2 0x233C JUMP JUMPDEST JUMPDEST SWAP1 PUSH1 0x0 MSTORE PUSH1 0x20 PUSH1 0x0 KECCAK256 SWAP1 PUSH1 0x2 MUL ADD PUSH1 0x1 ADD SLOAD SUB PUSH2 0xAE5 JUMPI DUP2 DUP1 PUSH2 0xAE1 SWAP1 PUSH2 0x239A JUMP JUMPDEST SWAP3 POP POP JUMPDEST JUMPDEST DUP1 DUP1 PUSH1 0x1 ADD SWAP2 POP POP PUSH2 0x985 JUMP JUMPDEST POP PUSH1 0x1 DUP2 GT ISZERO PUSH2 0xB1C JUMPI PUSH1 0x1 PUSH1 0x40 MLOAD DUP1 PUSH1 0x20 ADD PUSH1 0x40 MSTORE DUP1 PUSH1 0x0 DUP2 MSTORE POP SWAP1 SWAP6 POP SWAP6 POP POP POP POP PUSH2 0xB27 JUMP JUMPDEST DUP6 PUSH1 0x0 SWAP6 POP SWAP6 POP POP POP POP JUMPDEST POP SWAP2 POP SWAP2 JUMP JUMPDEST PUSH2 0xB35 PUSH2 0x140E JUMP JUMPDEST PUSH2 0xB3F PUSH1 0x0 PUSH2 0x1495 JUMP JUMPDEST JUMP JUMPDEST PUSH1 0x2 SLOAD DUP2 JUMP JUMPDEST PUSH2 0xB4F PUSH2 0x140E JUMP JUMPDEST DUP3 DUP3 GT PUSH2 0xB91 JUMPI PUSH1 0x40 MLOAD PUSH32 0x8C379A000000000000000000000000000000000000000000000000000000000 DUP2 MSTORE PUSH1 0x4 ADD PUSH2 0xB88 SWAP1 PUSH2 0x2454 JUMP JUMPDEST PUSH1 0x40 MLOAD DUP1 SWAP2 SUB SWAP1 REVERT JUMPDEST PUSH1 0x0 PUSH1 0x3 PUSH1 0x0 PUSH1 0x2 SLOAD DUP2 MSTORE PUSH1 0x20 ADD SWAP1 DUP2 MSTORE PUSH1 0x20 ADD PUSH1 0x0 KECCAK256 SWAP1 POP PUSH1 0x2 SLOAD DUP2 PUSH1 0x0 ADD DUP2 SWAP1 SSTORE POP DUP5 DUP2 PUSH1 0x1 ADD SWAP1 DUP2 PUSH2 0xBC6 SWAP2 SWAP1 PUSH2 0x2170 JUMP JUMPDEST POP DUP4 DUP2 PUSH1 0x2 ADD DUP2 SWAP1 SSTORE POP DUP3 DUP2 PUSH1 0x3 ADD DUP2 SWAP1 SSTORE POP PUSH1 0x1 DUP2 PUSH1 0x6 ADD PUSH1 0x0 PUSH2 0x100 EXP DUP2 SLOAD DUP2 PUSH1 0xFF MUL NOT AND SWAP1 DUP4 ISZERO ISZERO MUL OR SWAP1 SSTORE POP CALLER DUP2 PUSH1 0x6 ADD PUSH1 0x1 PUSH2 0x100 EXP DUP2 SLOAD DUP2 PUSH20 0xFFFFFFFFFFFFFFFFFFFFFFFFFFFFFFFFFFFFFFFF MUL NOT AND SWAP1 DUP4 PUSH20 0xFFFFFFFFFFFFFFFFFFFFFFFFFFFFFFFFFFFFFFFF AND MUL OR SWAP1 SSTORE POP DUP2 DUP2 PUSH1 0x6 ADD PUSH1 0x15 PUSH2 0x100 EXP DUP2 SLOAD DUP2 PUSH1 0xFF MUL NOT AND SWAP1 DUP4 ISZERO ISZERO MUL OR SWAP1 SSTORE POP CALLER PUSH20 0xFFFFFFFFFFFFFFFFFFFFFFFFFFFFFFFFFFFFFFFF AND PUSH32 0xAE0E5142BF9CD936E9F9A1F54C2A028BE757E1116114DBA08A755FC3EB7C6374 PUSH1 0x2 SLOAD DUP8 DUP8 DUP8 DUP8 PUSH1 0x40 MLOAD PUSH2 0xCA5 SWAP6 SWAP5 SWAP4 SWAP3 SWAP2 SWAP1 PUSH2 0x2474 JUMP JUMPDEST PUSH1 0x40 MLOAD DUP1 SWAP2 SUB SWAP1 LOG2 PUSH1 0x2 PUSH1 0x0 DUP2 SLOAD DUP1 SWAP3 SWAP2 SWAP1 PUSH2 0xCC0 SWAP1 PUSH2 0x239A JUMP JUMPDEST SWAP2 SWAP1 POP SSTORE POP POP POP POP POP POP JUMP JUMPDEST PUSH1 0x0 DUP1 PUSH1 0x0 SWAP1 SLOAD SWAP1 PUSH2 0x100 EXP SWAP1 DIV PUSH20 0xFFFFFFFFFFFFFFFFFFFFFFFFFFFFFFFFFFFFFFFF AND SWAP1 POP SWAP1 JUMP JUMPDEST PUSH2 0xCFD PUSH2 0x140E JUMP JUMPDEST PUSH1 0x0 PUSH20 0xFFFFFFFFFFFFFFFFFFFFFFFFFFFFFFFFFFFFFFFF AND DUP2 PUSH20 0xFFFFFFFFFFFFFFFFFFFFFFFFFFFFFFFFFFFFFFFF AND SUB PUSH2 0xD6C JUMPI PUSH1 0x40 MLOAD PUSH32 0x8C379A000000000000000000000000000000000000000000000000000000000 DUP2 MSTORE PUSH1 0x4 ADD PUSH2 0xD63 SWAP1 PUSH2 0x251A JUMP JUMPDEST PUSH1 0x40 MLOAD DUP1 SWAP2 SUB SWAP1 REVERT JUMPDEST DUP1 PUSH1 0x4 PUSH1 0x0 PUSH2 0x100 EXP DUP2 SLOAD DUP2 PUSH20 0xFFFFFFFFFFFFFFFFFFFFFFFFFFFFFFFFFFFFFFFF MUL NOT AND SWAP1 DUP4 PUSH20 0xFFFFFFFFFFFFFFFFFFFFFFFFFFFFFFFFFFFFFFFF AND MUL OR SWAP1 SSTORE POP DUP1 PUSH20 0xFFFFFFFFFFFFFFFFFFFFFFFFFFFFFFFFFFFFFFFF AND PUSH32 0x747A2696976F554BBCD12629692EB7B1F4BD7ACBD27877261F12D7154E1F3031 PUSH1 0x40 MLOAD PUSH1 0x40 MLOAD DUP1 SWAP2 SUB SWAP1 LOG2 POP JUMP JUMPDEST PUSH1 0x0 DUP2 DUP1 PUSH1 0x3 PUSH1 0x0 DUP4 DUP2 MSTORE PUSH1 0x20 ADD SWAP1 DUP2 MSTORE PUSH1 0x20 ADD PUSH1 0x0 KECCAK256 PUSH1 0x0 ADD SLOAD EQ PUSH2 0xE4E JUMPI PUSH1 0x40 MLOAD PUSH32 0x8C379A000000000000000000000000000000000000000000000000000000000 DUP2 MSTORE PUSH1 0x4 ADD PUSH2 0xE45 SWAP1 PUSH2 0x1DD2 JUMP JUMPDEST PUSH1 0x40 MLOAD DUP1 SWAP2 SUB SWAP1 REVERT JUMPDEST PUSH1 0x3 PUSH1 0x0 DUP5 DUP2 MSTORE PUSH1 0x20 ADD SWAP1 DUP2 MSTORE PUSH1 0x20 ADD PUSH1 0x0 KECCAK256 PUSH1 0x6 ADD PUSH1 0x1 SWAP1 SLOAD SWAP1 PUSH2 0x100 EXP SWAP1 DIV PUSH20 0xFFFFFFFFFFFFFFFFFFFFFFFFFFFFFFFFFFFFFFFF AND SWAP2 POP POP SWAP2 SWAP1 POP JUMP JUMPDEST PUSH2 0xE95 PUSH2 0x1559 JUMP JUMPDEST DUP2 PUSH1 0x3 PUSH1 0x0 DUP3 DUP2 MSTORE PUSH1 0x20 ADD SWAP1 DUP2 MSTORE PUSH1 0x20 ADD PUSH1 0x0 KECCAK256 PUSH1 0x2 ADD SLOAD TIMESTAMP LT ISZERO DUP1 ISZERO PUSH2 0xED2 JUMPI POP PUSH1 0x3 PUSH1 0x0 DUP3 DUP2 MSTORE PUSH1 0x20 ADD SWAP1 DUP2 MSTORE PUSH1 0x20 ADD PUSH1 0x0 KECCAK256 PUSH1 0x3 ADD SLOAD TIMESTAMP GT ISZERO JUMPDEST PUSH2 0xF11 JUMPI PUSH1 0x40 MLOAD PUSH32 0x8C379A000000000000000000000000000000000000000000000000000000000 DUP2 MSTORE PUSH1 0x4 ADD PUSH2 0xF08 SWAP1 PUSH2 0x25AC JUMP JUMPDEST PUSH1 0x40 MLOAD DUP1 SWAP2 SUB SWAP1 REVERT JUMPDEST PUSH1 0x0 PUSH1 0x3 PUSH1 0x0 DUP4 DUP2 MSTORE PUSH1 0x20 ADD SWAP1 DUP2 MSTORE PUSH1 0x20 ADD PUSH1 0x0 KECCAK256 PUSH1 0x4 ADD DUP1 SLOAD SWAP1 POP GT PUSH2 0xF6D JUMPI PUSH1 0x40 MLOAD PUSH32 0x8C379A000000000000000000000000000000000000000000000000000000000 DUP2 MSTORE PUSH1 0x4 ADD PUSH2 0xF64 SWAP1 PUSH2 0x263E JUMP JUMPDEST PUSH1 0x40 MLOAD DUP1 SWAP2 SUB SWAP1 REVERT JUMPDEST DUP3 DUP1 PUSH1 0x3 PUSH1 0x0 DUP4 DUP2 MSTORE PUSH1 0x20 ADD SWAP1 DUP2 MSTORE PUSH1 0x20 ADD PUSH1 0x0 KECCAK256 PUSH1 0x0 ADD SLOAD EQ PUSH2 0xFC6 JUMPI PUSH1 0x40 MLOAD PUSH32 0x8C379A000000000000000000000000000000000000000000000000000000000 DUP2 MSTORE PUSH1 0x4 ADD PUSH2 0xFBD SWAP1 PUSH2 0x1DD2 JUMP JUMPDEST PUSH1 0x40 MLOAD DUP1 SWAP2 SUB SWAP1 REVERT JUMPDEST PUSH1 0x0 PUSH1 0x3 PUSH1 0x0 DUP7 DUP2 MSTORE PUSH1 0x20 ADD SWAP1 DUP2 MSTORE PUSH1 0x20 ADD PUSH1 0x0 KECCAK256 SWAP1 POP DUP1 PUSH1 0x5 ADD PUSH1 0x0 CALLER PUSH20 0xFFFFFFFFFFFFFFFFFFFFFFFFFFFFFFFFFFFFFFFF AND PUSH20 0xFFFFFFFFFFFFFFFFFFFFFFFFFFFFFFFFFFFFFFFF AND DUP2 MSTORE PUSH1 0x20 ADD SWAP1 DUP2 MSTORE PUSH1 0x20 ADD PUSH1 0x0 KECCAK256 PUSH1 0x0 SWAP1 SLOAD SWAP1 PUSH2 0x100 EXP SWAP1 DIV PUSH1 0xFF AND ISZERO PUSH2 0x106C JUMPI PUSH1 0x40 MLOAD PUSH32 0x8C379A000000000000000000000000000000000000000000000000000000000 DUP2 MSTORE PUSH1 0x4 ADD PUSH2 0x1063 SWAP1 PUSH2 0x26AA JUMP JUMPDEST PUSH1 0x40 MLOAD DUP1 SWAP2 SUB SWAP1 REVERT JUMPDEST DUP1 PUSH1 0x4 ADD DUP1 SLOAD SWAP1 POP DUP5 LT PUSH2 0x10B5 JUMPI PUSH1 0x40 MLOAD PUSH32 0x8C379A000000000000000000000000000000000000000000000000000000000 DUP2 MSTORE PUSH1 0x4 ADD PUSH2 0x10AC SWAP1 PUSH2 0x2716 JUMP JUMPDEST PUSH1 0x40 MLOAD DUP1 SWAP2 SUB SWAP1 REVERT JUMPDEST DUP1 PUSH1 0x6 ADD PUSH1 0x15 SWAP1 SLOAD SWAP1 PUSH2 0x100 EXP SWAP1 DIV PUSH1 0xFF AND ISZERO PUSH2 0x11A8 JUMPI PUSH1 0x4 PUSH1 0x0 SWAP1 SLOAD SWAP1 PUSH2 0x100 EXP SWAP1 DIV PUSH20 0xFFFFFFFFFFFFFFFFFFFFFFFFFFFFFFFFFFFFFFFF AND PUSH20 0xFFFFFFFFFFFFFFFFFFFFFFFFFFFFFFFFFFFFFFFF AND PUSH4 0xF72C436F CALLER PUSH1 0x40 MLOAD DUP3 PUSH4 0xFFFFFFFF AND PUSH1 0xE0 SHL DUP2 MSTORE PUSH1 0x4 ADD PUSH2 0x1127 SWAP2 SWAP1 PUSH2 0x1B9D JUMP JUMPDEST PUSH1 0x20 PUSH1 0x40 MLOAD DUP1 DUP4 SUB DUP2 DUP7 GAS STATICCALL ISZERO DUP1 ISZERO PUSH2 0x1144 JUMPI RETURNDATASIZE PUSH1 0x0 DUP1 RETURNDATACOPY RETURNDATASIZE PUSH1 0x0 REVERT JUMPDEST POP POP POP POP PUSH1 0x40 MLOAD RETURNDATASIZE PUSH1 0x1F NOT PUSH1 0x1F DUP3 ADD AND DUP3 ADD DUP1 PUSH1 0x40 MSTORE POP DUP2 ADD SWAP1 PUSH2 0x1168 SWAP2 SWAP1 PUSH2 0x274B JUMP JUMPDEST PUSH2 0x11A7 JUMPI PUSH1 0x40 MLOAD PUSH32 0x8C379A000000000000000000000000000000000000000000000000000000000 DUP2 MSTORE PUSH1 0x4 ADD PUSH2 0x119E SWAP1 PUSH2 0x2810 JUMP JUMPDEST PUSH1 0x40 MLOAD DUP1 SWAP2 SUB SWAP1 REVERT JUMPDEST JUMPDEST PUSH1 0x1 DUP2 PUSH1 0x5 ADD PUSH1 0x0 CALLER PUSH20 0xFFFFFFFFFFFFFFFFFFFFFFFFFFFFFFFFFFFFFFFF AND PUSH20 0xFFFFFFFFFFFFFFFFFFFFFFFFFFFFFFFFFFFFFFFF AND DUP2 MSTORE PUSH1 0x20 ADD SWAP1 DUP2 MSTORE PUSH1 0x20 ADD PUSH1 0x0 KECCAK256 PUSH1 0x0 PUSH2 0x100 EXP DUP2 SLOAD DUP2 PUSH1 0xFF MUL NOT AND SWAP1 DUP4 ISZERO ISZERO MUL OR SWAP1 SSTORE POP DUP1 PUSH1 0x4 ADD DUP5 DUP2 SLOAD DUP2 LT PUSH2 0x1218 JUMPI PUSH2 0x1217 PUSH2 0x233C JUMP JUMPDEST JUMPDEST SWAP1 PUSH1 0x0 MSTORE PUSH1 0x20 PUSH1 0x0 KECCAK256 SWAP1 PUSH1 0x2 MUL ADD PUSH1 0x1 ADD PUSH1 0x0 DUP2 SLOAD DUP1 SWAP3 SWAP2 SWAP1 PUSH2 0x123A SWAP1 PUSH2 0x239A JUMP JUMPDEST SWAP2 SWAP1 POP SSTORE POP DUP5 CALLER PUSH20 0xFFFFFFFFFFFFFFFFFFFFFFFFFFFFFFFFFFFFFFFF AND PUSH32 0xB4CFECF70861B7B150D8337780D34FB4CBC2114B5FB1FE51A5C5FCA1849F7274 DUP7 PUSH1 0x40 MLOAD PUSH2 0x1286 SWAP2 SWAP1 PUSH2 0x1AD3 JUMP JUMPDEST PUSH1 0x40 MLOAD DUP1 SWAP2 SUB SWAP1 LOG3 POP POP POP PUSH2 0x1299 PUSH2 0x159F JUMP JUMPDEST POP POP JUMP JUMPDEST PUSH1 0x4 PUSH1 0x0 SWAP1 SLOAD SWAP1 PUSH2 0x100 EXP SWAP1 DIV PUSH20 0xFFFFFFFFFFFFFFFFFFFFFFFFFFFFFFFFFFFFFFFF AND DUP2 JUMP JUMPDEST PUSH1 0x0 DUP3 DUP1 PUSH1 0x3 PUSH1 0x0 DUP4 DUP2 MSTORE PUSH1 0x20 ADD SWAP1 DUP2 MSTORE PUSH1 0x20 ADD PUSH1 0x0 KECCAK256 PUSH1 0x0 ADD SLOAD EQ PUSH2 0x131E JUMPI PUSH1 0x40 MLOAD PUSH32 0x8C379A000000000000000000000000000000000000000000000000000000000 DUP2 MSTORE PUSH1 0x4 ADD PUSH2 0x1315 SWAP1 PUSH2 0x1DD2 JUMP JUMPDEST PUSH1 0x40 MLOAD DUP1 SWAP2 SUB SWAP1 REVERT JUMPDEST PUSH1 0x3 PUSH1 0x0 DUP6 DUP2 MSTORE PUSH1 0x20 ADD SWAP1 DUP2 MSTORE PUSH1 0x20 ADD PUSH1 0x0 KECCAK256 PUSH1 0x5 ADD PUSH1 0x0 DUP5 PUSH20 0xFFFFFFFFFFFFFFFFFFFFFFFFFFFFFFFFFFFFFFFF AND PUSH20 0xFFFFFFFFFFFFFFFFFFFFFFFFFFFFFFFFFFFFFFFF AND DUP2 MSTORE PUSH1 0x20 ADD SWAP1 DUP2 MSTORE PUSH1 0x20 ADD PUSH1 0x0 KECCAK256 PUSH1 0x0 SWAP1 SLOAD SWAP1 PUSH2 0x100 EXP SWAP1 DIV PUSH1 0xFF AND SWAP2 POP POP SWAP3 SWAP2 POP POP JUMP JUMPDEST PUSH2 0x1390 PUSH2 0x140E JUMP JUMPDEST PUSH1 0x0 PUSH20 0xFFFFFFFFFFFFFFFFFFFFFFFFFFFFFFFFFFFFFFFF AND DUP2 PUSH20 0xFFFFFFFFFFFFFFFFFFFFFFFFFFFFFFFFFFFFFFFF AND SUB PUSH2 0x1402 JUMPI PUSH1 0x0 PUSH1 0x40 MLOAD PUSH32 0x1E4FBDF700000000000000000000000000000000000000000000000000000000 DUP2 MSTORE PUSH1 0x4 ADD PUSH2 0x13F9 SWAP2 SWAP1 PUSH2 0x1B9D JUMP JUMPDEST PUSH1 0x40 MLOAD DUP1 SWAP2 SUB SWAP1 REVERT JUMPDEST PUSH2 0x140B DUP2 PUSH2 0x1495 JUMP JUMPDEST POP JUMP JUMPDEST PUSH2 0x1416 PUSH2 0x15A8 JUMP JUMPDEST PUSH20 0xFFFFFFFFFFFFFFFFFFFFFFFFFFFFFFFFFFFFFFFF AND PUSH2 0x1434 PUSH2 0xCCC JUMP JUMPDEST PUSH20 0xFFFFFFFFFFFFFFFFFFFFFFFFFFFFFFFFFFFFFFFF AND EQ PUSH2 0x1493 JUMPI PUSH2 0x1457 PUSH2 0x15A8 JUMP JUMPDEST PUSH1 0x40 MLOAD PUSH32 0x118CDAA700000000000000000000000000000000000000000000000000000000 DUP2 MSTORE PUSH1 0x4 ADD PUSH2 0x148A SWAP2 SWAP1 PUSH2 0x1B9D JUMP JUMPDEST PUSH1 0x40 MLOAD DUP1 SWAP2 SUB SWAP1 REVERT JUMPDEST JUMP JUMPDEST PUSH1 0x0 DUP1 PUSH1 0x0 SWAP1 SLOAD SWAP1 PUSH2 0x100 EXP SWAP1 DIV PUSH20 0xFFFFFFFFFFFFFFFFFFFFFFFFFFFFFFFFFFFFFFFF AND SWAP1 POP DUP2 PUSH1 0x0 DUP1 PUSH2 0x100 EXP DUP2 SLOAD DUP2 PUSH20 0xFFFFFFFFFFFFFFFFFFFFFFFFFFFFFFFFFFFFFFFF MUL NOT AND SWAP1 DUP4 PUSH20 0xFFFFFFFFFFFFFFFFFFFFFFFFFFFFFFFFFFFFFFFF AND MUL OR SWAP1 SSTORE POP DUP2 PUSH20 0xFFFFFFFFFFFFFFFFFFFFFFFFFFFFFFFFFFFFFFFF AND DUP2 PUSH20 0xFFFFFFFFFFFFFFFFFFFFFFFFFFFFFFFFFFFFFFFF AND PUSH32 0x8BE0079C531659141344CD1FD0A4F28419497F9722A3DAAFE3B4186F6B6457E0 PUSH1 0x40 MLOAD PUSH1 0x40 MLOAD DUP1 SWAP2 SUB SWAP1 LOG3 POP POP JUMP JUMPDEST PUSH1 0x2 PUSH1 0x1 SLOAD SUB PUSH2 0x1595 JUMPI PUSH1 0x40 MLOAD PUSH32 0x3EE5AEB500000000000000000000000000000000000000000000000000000000 DUP2 MSTORE PUSH1 0x4 ADD PUSH1 0x40 MLOAD DUP1 SWAP2 SUB SWAP1 REVERT JUMPDEST PUSH1 0x2 PUSH1 0x1 DUP2 SWAP1 SSTORE POP JUMP JUMPDEST PUSH1 0x1 DUP1 DUP2 SWAP1 SSTORE POP JUMP JUMPDEST PUSH1 0x0 CALLER SWAP1 POP SWAP1 JUMP JUMPDEST PUSH1 0x0 PUSH1 0x40 MLOAD SWAP1 POP SWAP1 JUMP JUMPDEST PUSH1 0x0 DUP1 REVERT JUMPDEST PUSH1 0x0 DUP1 REVERT JUMPDEST PUSH1 0x0 DUP2 SWAP1 POP SWAP2 SWAP1 POP JUMP JUMPDEST PUSH2 0x15D7 DUP2 PUSH2 0x15C4 JUMP JUMPDEST DUP2 EQ PUSH2 0x15E2 JUMPI PUSH1 0x0 DUP1 REVERT JUMPDEST POP JUMP JUMPDEST PUSH1 0x0 DUP2 CALLDATALOAD SWAP1 POP PUSH2 0x15F4 DUP2 PUSH2 0x15CE JUMP JUMPDEST SWAP3 SWAP2 POP POP JUMP JUMPDEST PUSH1 0x0 PUSH1 0x20 DUP3 DUP5 SUB SLT ISZERO PUSH2 0x1610 JUMPI PUSH2 0x160F PUSH2 0x15BA JUMP JUMPDEST JUMPDEST PUSH1 0x0 PUSH2 0x161E DUP5 DUP3 DUP6 ADD PUSH2 0x15E5 JUMP JUMPDEST SWAP2 POP POP SWAP3 SWAP2 POP POP JUMP JUMPDEST PUSH2 0x1630 DUP2 PUSH2 0x15C4 JUMP JUMPDEST DUP3 MSTORE POP POP JUMP JUMPDEST PUSH1 0x0 DUP2 MLOAD SWAP1 POP SWAP2 SWAP1 POP JUMP JUMPDEST PUSH1 0x0 DUP3 DUP3 MSTORE PUSH1 0x20 DUP3 ADD SWAP1 POP SWAP3 SWAP2 POP POP JUMP JUMPDEST PUSH1 0x0 JUMPDEST DUP4 DUP2 LT ISZERO PUSH2 0x1670 JUMPI DUP1 DUP3 ADD MLOAD DUP2 DUP5 ADD MSTORE PUSH1 0x20 DUP2 ADD SWAP1 POP PUSH2 0x1655 JUMP JUMPDEST PUSH1 0x0 DUP5 DUP5 ADD MSTORE POP POP POP POP JUMP JUMPDEST PUSH1 0x0 PUSH1 0x1F NOT PUSH1 0x1F DUP4 ADD AND SWAP1 POP SWAP2 SWAP1 POP JUMP JUMPDEST PUSH1 0x0 PUSH2 0x1698 DUP3 PUSH2 0x1636 JUMP JUMPDEST PUSH2 0x16A2 DUP2 DUP6 PUSH2 0x1641 JUMP JUMPDEST SWAP4 POP PUSH2 0x16B2 DUP2 DUP6 PUSH1 0x20 DUP7 ADD PUSH2 0x1652 JUMP JUMPDEST PUSH2 0x16BB DUP2 PUSH2 0x167C JUMP JUMPDEST DUP5 ADD SWAP2 POP POP SWAP3 SWAP2 POP POP JUMP JUMPDEST PUSH1 0x0 DUP2 ISZERO ISZERO SWAP1 POP SWAP2 SWAP1 POP JUMP JUMPDEST PUSH2 0x16DB DUP2 PUSH2 0x16C6 JUMP JUMPDEST DUP3 MSTORE POP POP JUMP JUMPDEST PUSH1 0x0 PUSH20 0xFFFFFFFFFFFFFFFFFFFFFFFFFFFFFFFFFFFFFFFF DUP3 AND SWAP1 POP SWAP2 SWAP1 POP JUMP JUMPDEST PUSH1 0x0 PUSH2 0x170C DUP3 PUSH2 0x16E1 JUMP JUMPDEST SWAP1 POP SWAP2 SWAP1 POP JUMP JUMPDEST PUSH2 0x171C DUP2 PUSH2 0x1701 JUMP JUMPDEST DUP3 MSTORE POP POP JUMP JUMPDEST PUSH1 0x0 PUSH1 0xE0 DUP3 ADD SWAP1 POP PUSH2 0x1737 PUSH1 0x0 DUP4 ADD DUP11 PUSH2 0x1627 JUMP JUMPDEST DUP2 DUP2 SUB PUSH1 0x20 DUP4 ADD MSTORE PUSH2 0x1749 DUP2 DUP10 PUSH2 0x168D JUMP JUMPDEST SWAP1 POP PUSH2 0x1758 PUSH1 0x40 DUP4 ADD DUP9 PUSH2 0x1627 JUMP JUMPDEST PUSH2 0x1765 PUSH1 0x60 DUP4 ADD DUP8 PUSH2 0x1627 JUMP JUMPDEST PUSH2 0x1772 PUSH1 0x80 DUP4 ADD DUP7 PUSH2 0x16D2 JUMP JUMPDEST PUSH2 0x177F PUSH1 0xA0 DUP4 ADD DUP6 PUSH2 0x1713 JUMP JUMPDEST PUSH2 0x178C PUSH1 0xC0 DUP4 ADD DUP5 PUSH2 0x16D2 JUMP JUMPDEST SWAP9 SWAP8 POP POP POP POP POP POP POP POP JUMP JUMPDEST PUSH1 0x0 DUP1 REVERT JUMPDEST PUSH1 0x0 DUP1 REVERT JUMPDEST PUSH32 0x4E487B7100000000000000000000000000000000000000000000000000000000 PUSH1 0x0 MSTORE PUSH1 0x41 PUSH1 0x4 MSTORE PUSH1 0x24 PUSH1 0x0 REVERT JUMPDEST PUSH2 0x17DA DUP3 PUSH2 0x167C JUMP JUMPDEST DUP2 ADD DUP2 DUP2 LT PUSH8 0xFFFFFFFFFFFFFFFF DUP3 GT OR ISZERO PUSH2 0x17F9 JUMPI PUSH2 0x17F8 PUSH2 0x17A2 JUMP JUMPDEST JUMPDEST DUP1 PUSH1 0x40 MSTORE POP POP POP JUMP JUMPDEST PUSH1 0x0 PUSH2 0x180C PUSH2 0x15B0 JUMP JUMPDEST SWAP1 POP PUSH2 0x1818 DUP3 DUP3 PUSH2 0x17D1 JUMP JUMPDEST SWAP2 SWAP1 POP JUMP JUMPDEST PUSH1 0x0 PUSH8 0xFFFFFFFFFFFFFFFF DUP3 GT ISZERO PUSH2 0x1838 JUMPI PUSH2 0x1837 PUSH2 0x17A2 JUMP JUMPDEST JUMPDEST PUSH2 0x1841 DUP3 PUSH2 0x167C JUMP JUMPDEST SWAP1 POP PUSH1 0x20 DUP2 ADD SWAP1 POP SWAP2 SWAP1 POP JUMP JUMPDEST DUP3 DUP2 DUP4 CALLDATACOPY PUSH1 0x0 DUP4 DUP4 ADD MSTORE POP POP POP JUMP JUMPDEST PUSH1 0x0 PUSH2 0x1870 PUSH2 0x186B DUP5 PUSH2 0x181D JUMP JUMPDEST PUSH2 0x1802 JUMP JUMPDEST SWAP1 POP DUP3 DUP2 MSTORE PUSH1 0x20 DUP2 ADD DUP5 DUP5 DUP5 ADD GT ISZERO PUSH2 0x188C JUMPI PUSH2 0x188B PUSH2 0x179D JUMP JUMPDEST JUMPDEST PUSH2 0x1897 DUP5 DUP3 DUP6 PUSH2 0x184E JUMP JUMPDEST POP SWAP4 SWAP3 POP POP POP JUMP JUMPDEST PUSH1 0x0 DUP3 PUSH1 0x1F DUP4 ADD SLT PUSH2 0x18B4 JUMPI PUSH2 0x18B3 PUSH2 0x1798 JUMP JUMPDEST JUMPDEST DUP2 CALLDATALOAD PUSH2 0x18C4 DUP5 DUP3 PUSH1 0x20 DUP7 ADD PUSH2 0x185D JUMP JUMPDEST SWAP2 POP POP SWAP3 SWAP2 POP POP JUMP JUMPDEST PUSH1 0x0 DUP1 PUSH1 0x40 DUP4 DUP6 SUB SLT ISZERO PUSH2 0x18E4 JUMPI PUSH2 0x18E3 PUSH2 0x15BA JUMP JUMPDEST JUMPDEST PUSH1 0x0 PUSH2 0x18F2 DUP6 DUP3 DUP7 ADD PUSH2 0x15E5 JUMP JUMPDEST SWAP3 POP POP PUSH1 0x20 DUP4 ADD CALLDATALOAD PUSH8 0xFFFFFFFFFFFFFFFF DUP2 GT ISZERO PUSH2 0x1913 JUMPI PUSH2 0x1912 PUSH2 0x15BF JUMP JUMPDEST JUMPDEST PUSH2 0x191F DUP6 DUP3 DUP7 ADD PUSH2 0x189F JUMP JUMPDEST SWAP2 POP POP SWAP3 POP SWAP3 SWAP1 POP JUMP JUMPDEST PUSH1 0x0 DUP2 MLOAD SWAP1 POP SWAP2 SWAP1 POP JUMP JUMPDEST PUSH1 0x0 DUP3 DUP3 MSTORE PUSH1 0x20 DUP3 ADD SWAP1 POP SWAP3 SWAP2 POP POP JUMP JUMPDEST PUSH1 0x0 DUP2 SWAP1 POP PUSH1 0x20 DUP3 ADD SWAP1 POP SWAP2 SWAP1 POP JUMP JUMPDEST PUSH1 0x0 DUP3 DUP3 MSTORE PUSH1 0x20 DUP3 ADD SWAP1 POP SWAP3 SWAP2 POP POP JUMP JUMPDEST PUSH1 0x0 PUSH2 0x1971 DUP3 PUSH2 0x1636 JUMP JUMPDEST PUSH2 0x197B DUP2 DUP6 PUSH2 0x1955 JUMP JUMPDEST SWAP4 POP PUSH2 0x198B DUP2 DUP6 PUSH1 0x20 DUP7 ADD PUSH2 0x1652 JUMP JUMPDEST PUSH2 0x1994 DUP2 PUSH2 0x167C JUMP JUMPDEST DUP5 ADD SWAP2 POP POP SWAP3 SWAP2 POP POP JUMP JUMPDEST PUSH2 0x19A8 DUP2 PUSH2 0x15C4 JUMP JUMPDEST DUP3 MSTORE POP POP JUMP JUMPDEST PUSH1 0x0 PUSH1 0x40 DUP4 ADD PUSH1 0x0 DUP4 ADD MLOAD DUP5 DUP3 SUB PUSH1 0x0 DUP7 ADD MSTORE PUSH2 0x19CB DUP3 DUP3 PUSH2 0x1966 JUMP JUMPDEST SWAP2 POP POP PUSH1 0x20 DUP4 ADD MLOAD PUSH2 0x19E0 PUSH1 0x20 DUP7 ADD DUP3 PUSH2 0x199F JUMP JUMPDEST POP DUP1 SWAP2 POP POP SWAP3 SWAP2 POP POP JUMP JUMPDEST PUSH1 0x0 PUSH2 0x19F7 DUP4 DUP4 PUSH2 0x19AE JUMP JUMPDEST SWAP1 POP SWAP3 SWAP2 POP POP JUMP JUMPDEST PUSH1 0x0 PUSH1 0x20 DUP3 ADD SWAP1 POP SWAP2 SWAP1 POP JUMP JUMPDEST PUSH1 0x0 PUSH2 0x1A17 DUP3 PUSH2 0x1929 JUMP JUMPDEST PUSH2 0x1A21 DUP2 DUP6 PUSH2 0x1934 JUMP JUMPDEST SWAP4 POP DUP4 PUSH1 0x20 DUP3 MUL DUP6 ADD PUSH2 0x1A33 DUP6 PUSH2 0x1945 JUMP JUMPDEST DUP1 PUSH1 0x0 JUMPDEST DUP6 DUP2 LT ISZERO PUSH2 0x1A6F JUMPI DUP5 DUP5 SUB DUP10 MSTORE DUP2 MLOAD PUSH2 0x1A50 DUP6 DUP3 PUSH2 0x19EB JUMP JUMPDEST SWAP5 POP PUSH2 0x1A5B DUP4 PUSH2 0x19FF JUMP JUMPDEST SWAP3 POP PUSH1 0x20 DUP11 ADD SWAP10 POP POP PUSH1 0x1 DUP2 ADD SWAP1 POP PUSH2 0x1A37 JUMP JUMPDEST POP DUP3 SWAP8 POP DUP8 SWAP6 POP POP POP POP POP POP SWAP3 SWAP2 POP POP JUMP JUMPDEST PUSH1 0x0 PUSH1 0x20 DUP3 ADD SWAP1 POP DUP2 DUP2 SUB PUSH1 0x0 DUP4 ADD MSTORE PUSH2 0x1A9B DUP2 DUP5 PUSH2 0x1A0C JUMP JUMPDEST SWAP1 POP SWAP3 SWAP2 POP POP JUMP JUMPDEST PUSH1 0x0 PUSH1 0x40 DUP3 ADD SWAP1 POP DUP2 DUP2 SUB PUSH1 0x0 DUP4 ADD MSTORE PUSH2 0x1ABD DUP2 DUP6 PUSH2 0x168D JUMP JUMPDEST SWAP1 POP PUSH2 0x1ACC PUSH1 0x20 DUP4 ADD DUP5 PUSH2 0x16D2 JUMP JUMPDEST SWAP4 SWAP3 POP POP POP JUMP JUMPDEST PUSH1 0x0 PUSH1 0x20 DUP3 ADD SWAP1 POP PUSH2 0x1AE8 PUSH1 0x0 DUP4 ADD DUP5 PUSH2 0x1627 JUMP JUMPDEST SWAP3 SWAP2 POP POP JUMP JUMPDEST PUSH2 0x1AF7 DUP2 PUSH2 0x16C6 JUMP JUMPDEST DUP2 EQ PUSH2 0x1B02 JUMPI PUSH1 0x0 DUP1 REVERT JUMPDEST POP JUMP JUMPDEST PUSH1 0x0 DUP2 CALLDATALOAD SWAP1 POP PUSH2 0x1B14 DUP2 PUSH2 0x1AEE JUMP JUMPDEST SWAP3 SWAP2 POP POP JUMP JUMPDEST PUSH1 0x0 DUP1 PUSH1 0x0 DUP1 PUSH1 0x80 DUP6 DUP8 SUB SLT ISZERO PUSH2 0x1B34 JUMPI PUSH2 0x1B33 PUSH2 0x15BA JUMP JUMPDEST JUMPDEST PUSH1 0x0 DUP6 ADD CALLDATALOAD PUSH8 0xFFFFFFFFFFFFFFFF DUP2 GT ISZERO PUSH2 0x1B52 JUMPI PUSH2 0x1B51 PUSH2 0x15BF JUMP JUMPDEST JUMPDEST PUSH2 0x1B5E DUP8 DUP3 DUP9 ADD PUSH2 0x189F JUMP JUMPDEST SWAP5 POP POP PUSH1 0x20 PUSH2 0x1B6F DUP8 DUP3 DUP9 ADD PUSH2 0x15E5 JUMP JUMPDEST SWAP4 POP POP PUSH1 0x40 PUSH2 0x1B80 DUP8 DUP3 DUP9 ADD PUSH2 0x15E5 JUMP JUMPDEST SWAP3 POP POP PUSH1 0x60 PUSH2 0x1B91 DUP8 DUP3 DUP9 ADD PUSH2 0x1B05 JUMP JUMPDEST SWAP2 POP POP SWAP3 SWAP6 SWAP2 SWAP5 POP SWAP3 POP JUMP JUMPDEST PUSH1 0x0 PUSH1 0x20 DUP3 ADD SWAP1 POP PUSH2 0x1BB2 PUSH1 0x0 DUP4 ADD DUP5 PUSH2 0x1713 JUMP JUMPDEST SWAP3 SWAP2 POP POP JUMP JUMPDEST PUSH2 0x1BC1 DUP2 PUSH2 0x1701 JUMP JUMPDEST DUP2 EQ PUSH2 0x1BCC JUMPI PUSH1 0x0 DUP1 REVERT JUMPDEST POP JUMP JUMPDEST PUSH1 0x0 DUP2 CALLDATALOAD SWAP1 POP PUSH2 0x1BDE DUP2 PUSH2 0x1BB8 JUMP JUMPDEST SWAP3 SWAP2 POP POP JUMP JUMPDEST PUSH1 0x0 PUSH1 0x20 DUP3 DUP5 SUB SLT ISZERO PUSH2 0x1BFA JUMPI PUSH2 0x1BF9 PUSH2 0x15BA JUMP JUMPDEST JUMPDEST PUSH1 0x0 PUSH2 0x1C08 DUP5 DUP3 DUP6 ADD PUSH2 0x1BCF JUMP JUMPDEST SWAP2 POP POP SWAP3 SWAP2 POP POP JUMP JUMPDEST PUSH1 0x0 DUP1 PUSH1 0x40 DUP4 DUP6 SUB SLT ISZERO PUSH2 0x1C28 JUMPI PUSH2 0x1C27 PUSH2 0x15BA JUMP JUMPDEST JUMPDEST PUSH1 0x0 PUSH2 0x1C36 DUP6 DUP3 DUP7 ADD PUSH2 0x15E5 JUMP JUMPDEST SWAP3 POP POP PUSH1 0x20 PUSH2 0x1C47 DUP6 DUP3 DUP7 ADD PUSH2 0x15E5 JUMP JUMPDEST SWAP2 POP POP SWAP3 POP SWAP3 SWAP1 POP JUMP JUMPDEST PUSH1 0x0 DUP2 SWAP1 POP SWAP2 SWAP1 POP JUMP JUMPDEST PUSH1 0x0 PUSH2 0x1C76 PUSH2 0x1C71 PUSH2 0x1C6C DUP5 PUSH2 0x16E1 JUMP JUMPDEST PUSH2 0x1C51 JUMP JUMPDEST PUSH2 0x16E1 JUMP JUMPDEST SWAP1 POP SWAP2 SWAP1 POP JUMP JUMPDEST PUSH1 0x0 PUSH2 0x1C88 DUP3 PUSH2 0x1C5B JUMP JUMPDEST SWAP1 POP SWAP2 SWAP1 POP JUMP JUMPDEST PUSH1 0x0 PUSH2 0x1C9A DUP3 PUSH2 0x1C7D JUMP JUMPDEST SWAP1 POP SWAP2 SWAP1 POP JUMP JUMPDEST PUSH2 0x1CAA DUP2 PUSH2 0x1C8F JUMP JUMPDEST DUP3 MSTORE POP POP JUMP JUMPDEST PUSH1 0x0 PUSH1 0x20 DUP3 ADD SWAP1 POP PUSH2 0x1CC5 PUSH1 0x0 DUP4 ADD DUP5 PUSH2 0x1CA1 JUMP JUMPDEST SWAP3 SWAP2 POP POP JUMP JUMPDEST PUSH1 0x0 DUP1 PUSH1 0x40 DUP4 DUP6 SUB SLT ISZERO PUSH2 0x1CE2 JUMPI PUSH2 0x1CE1 PUSH2 0x15BA JUMP JUMPDEST JUMPDEST PUSH1 0x0 PUSH2 0x1CF0 DUP6 DUP3 DUP7 ADD PUSH2 0x15E5 JUMP JUMPDEST SWAP3 POP POP PUSH1 0x20 PUSH2 0x1D01 DUP6 DUP3 DUP7 ADD PUSH2 0x1BCF JUMP JUMPDEST SWAP2 POP POP SWAP3 POP SWAP3 SWAP1 POP JUMP JUMPDEST PUSH1 0x0 PUSH1 0x20 DUP3 ADD SWAP1 POP PUSH2 0x1D20 PUSH1 0x0 DUP4 ADD DUP5 PUSH2 0x16D2 JUMP JUMPDEST SWAP3 SWAP2 POP POP JUMP JUMPDEST PUSH32 0x4E487B7100000000000000000000000000000000000000000000000000000000 PUSH1 0x0 MSTORE PUSH1 0x22 PUSH1 0x4 MSTORE PUSH1 0x24 PUSH1 0x0 REVERT JUMPDEST PUSH1 0x0 PUSH1 0x2 DUP3 DIV SWAP1 POP PUSH1 0x1 DUP3 AND DUP1 PUSH2 0x1D6D JUMPI PUSH1 0x7F DUP3 AND SWAP2 POP JUMPDEST PUSH1 0x20 DUP3 LT DUP2 SUB PUSH2 0x1D80 JUMPI PUSH2 0x1D7F PUSH2 0x1D26 JUMP JUMPDEST JUMPDEST POP SWAP2 SWAP1 POP JUMP JUMPDEST PUSH32 0x53657373696F6E20646F6573206E6F7420657869737400000000000000000000 PUSH1 0x0 DUP3 ADD MSTORE POP JUMP JUMPDEST PUSH1 0x0 PUSH2 0x1DBC PUSH1 0x16 DUP4 PUSH2 0x1641 JUMP JUMPDEST SWAP2 POP PUSH2 0x1DC7 DUP3 PUSH2 0x1D86 JUMP JUMPDEST PUSH1 0x20 DUP3 ADD SWAP1 POP SWAP2 SWAP1 POP JUMP JUMPDEST PUSH1 0x0 PUSH1 0x20 DUP3 ADD SWAP1 POP DUP2 DUP2 SUB PUSH1 0x0 DUP4 ADD MSTORE PUSH2 0x1DEB DUP2 PUSH2 0x1DAF JUMP JUMPDEST SWAP1 POP SWAP2 SWAP1 POP JUMP JUMPDEST PUSH32 0x4F6E6C79207468652073657373696F6E2063726561746F722063616E20706572 PUSH1 0x0 DUP3 ADD MSTORE PUSH32 0x666F726D207468697320616374696F6E00000000000000000000000000000000 PUSH1 0x20 DUP3 ADD MSTORE POP JUMP JUMPDEST PUSH1 0x0 PUSH2 0x1E4E PUSH1 0x30 DUP4 PUSH2 0x1641 JUMP JUMPDEST SWAP2 POP PUSH2 0x1E59 DUP3 PUSH2 0x1DF2 JUMP JUMPDEST PUSH1 0x40 DUP3 ADD SWAP1 POP SWAP2 SWAP1 POP JUMP JUMPDEST PUSH1 0x0 PUSH1 0x20 DUP3 ADD SWAP1 POP DUP2 DUP2 SUB PUSH1 0x0 DUP4 ADD MSTORE PUSH2 0x1E7D DUP2 PUSH2 0x1E41 JUMP JUMPDEST SWAP1 POP SWAP2 SWAP1 POP JUMP JUMPDEST PUSH32 0x596F752063616E6E6F742061646420612063616E64696461746520746F206120 PUSH1 0x0 DUP3 ADD MSTORE PUSH32 0x766F74696E672073657373696F6E20746861742068617320616C726561647920 PUSH1 0x20 DUP3 ADD MSTORE PUSH32 0x656E6465642E0000000000000000000000000000000000000000000000000000 PUSH1 0x40 DUP3 ADD MSTORE POP JUMP JUMPDEST PUSH1 0x0 PUSH2 0x1F06 PUSH1 0x46 DUP4 PUSH2 0x1641 JUMP JUMPDEST SWAP2 POP PUSH2 0x1F11 DUP3 PUSH2 0x1E84 JUMP JUMPDEST PUSH1 0x60 DUP3 ADD SWAP1 POP SWAP2 SWAP1 POP JUMP JUMPDEST PUSH1 0x0 PUSH1 0x20 DUP3 ADD SWAP1 POP DUP2 DUP2 SUB PUSH1 0x0 DUP4 ADD MSTORE PUSH2 0x1F35 DUP2 PUSH2 0x1EF9 JUMP JUMPDEST SWAP1 POP SWAP2 SWAP1 POP JUMP JUMPDEST PUSH32 0x43616E646964617465732063616E6E6F7420626520616464656420647572696E PUSH1 0x0 DUP3 ADD MSTORE PUSH32 0x672074686520766F74696E6720706572696F642E000000000000000000000000 PUSH1 0x20 DUP3 ADD MSTORE POP JUMP JUMPDEST PUSH1 0x0 PUSH2 0x1F98 PUSH1 0x34 DUP4 PUSH2 0x1641 JUMP JUMPDEST SWAP2 POP PUSH2 0x1FA3 DUP3 PUSH2 0x1F3C JUMP JUMPDEST PUSH1 0x40 DUP3 ADD SWAP1 POP SWAP2 SWAP1 POP JUMP JUMPDEST PUSH1 0x0 PUSH1 0x20 DUP3 ADD SWAP1 POP DUP2 DUP2 SUB PUSH1 0x0 DUP4 ADD MSTORE PUSH2 0x1FC7 DUP2 PUSH2 0x1F8B JUMP JUMPDEST SWAP1 POP SWAP2 SWAP1 POP JUMP JUMPDEST PUSH1 0x0 DUP2 SWAP1 POP DUP2 PUSH1 0x0 MSTORE PUSH1 0x20 PUSH1 0x0 KECCAK256 SWAP1 POP SWAP2 SWAP1 POP JUMP JUMPDEST PUSH1 0x0 PUSH1 0x20 PUSH1 0x1F DUP4 ADD DIV SWAP1 POP SWAP2 SWAP1 POP JUMP JUMPDEST PUSH1 0x0 DUP3 DUP3 SHL SWAP1 POP SWAP3 SWAP2 POP POP JUMP JUMPDEST PUSH1 0x0 PUSH1 0x8 DUP4 MUL PUSH2 0x2030 PUSH32 0xFFFFFFFFFFFFFFFFFFFFFFFFFFFFFFFFFFFFFFFFFFFFFFFFFFFFFFFFFFFFFFFF DUP3 PUSH2 0x1FF3 JUMP JUMPDEST PUSH2 0x203A DUP7 DUP4 PUSH2 0x1FF3 JUMP JUMPDEST SWAP6 POP DUP1 NOT DUP5 AND SWAP4 POP DUP1 DUP7 AND DUP5 OR SWAP3 POP POP POP SWAP4 SWAP3 POP POP POP JUMP JUMPDEST PUSH1 0x0 PUSH2 0x206D PUSH2 0x2068 PUSH2 0x2063 DUP5 PUSH2 0x15C4 JUMP JUMPDEST PUSH2 0x1C51 JUMP JUMPDEST PUSH2 0x15C4 JUMP JUMPDEST SWAP1 POP SWAP2 SWAP1 POP JUMP JUMPDEST PUSH1 0x0 DUP2 SWAP1 POP SWAP2 SWAP1 POP JUMP JUMPDEST PUSH2 0x2087 DUP4 PUSH2 0x2052 JUMP JUMPDEST PUSH2 0x209B PUSH2 0x2093 DUP3 PUSH2 0x2074 JUMP JUMPDEST DUP5 DUP5 SLOAD PUSH2 0x2000 JUMP JUMPDEST DUP3 SSTORE POP POP POP POP JUMP JUMPDEST PUSH1 0x0 SWAP1 JUMP JUMPDEST PUSH2 0x20B0 PUSH2 0x20A3 JUMP JUMPDEST PUSH2 0x20BB DUP2 DUP5 DUP5 PUSH2 0x207E JUMP JUMPDEST POP POP POP JUMP JUMPDEST JUMPDEST DUP2 DUP2 LT ISZERO PUSH2 0x20DF JUMPI PUSH2 0x20D4 PUSH1 0x0 DUP3 PUSH2 0x20A8 JUMP JUMPDEST PUSH1 0x1 DUP2 ADD SWAP1 POP PUSH2 0x20C1 JUMP JUMPDEST POP POP JUMP JUMPDEST PUSH1 0x1F DUP3 GT ISZERO PUSH2 0x2124 JUMPI PUSH2 0x20F5 DUP2 PUSH2 0x1FCE JUMP JUMPDEST PUSH2 0x20FE DUP5 PUSH2 0x1FE3 JUMP JUMPDEST DUP2 ADD PUSH1 0x20 DUP6 LT ISZERO PUSH2 0x210D JUMPI DUP2 SWAP1 POP JUMPDEST PUSH2 0x2121 PUSH2 0x2119 DUP6 PUSH2 0x1FE3 JUMP JUMPDEST DUP4 ADD DUP3 PUSH2 0x20C0 JUMP JUMPDEST POP POP JUMPDEST POP POP POP JUMP JUMPDEST PUSH1 0x0 DUP3 DUP3 SHR SWAP1 POP SWAP3 SWAP2 POP POP JUMP JUMPDEST PUSH1 0x0 PUSH2 0x2147 PUSH1 0x0 NOT DUP5 PUSH1 0x8 MUL PUSH2 0x2129 JUMP JUMPDEST NOT DUP1 DUP4 AND SWAP2 POP POP SWAP3 SWAP2 POP POP JUMP JUMPDEST PUSH1 0x0 PUSH2 0x2160 DUP4 DUP4 PUSH2 0x2136 JUMP JUMPDEST SWAP2 POP DUP3 PUSH1 0x2 MUL DUP3 OR SWAP1 POP SWAP3 SWAP2 POP POP JUMP JUMPDEST PUSH2 0x2179 DUP3 PUSH2 0x1636 JUMP JUMPDEST PUSH8 0xFFFFFFFFFFFFFFFF DUP2 GT ISZERO PUSH2 0x2192 JUMPI PUSH2 0x2191 PUSH2 0x17A2 JUMP JUMPDEST JUMPDEST PUSH2 0x219C DUP3 SLOAD PUSH2 0x1D55 JUMP JUMPDEST PUSH2 0x21A7 DUP3 DUP3 DUP6 PUSH2 0x20E3 JUMP JUMPDEST PUSH1 0x0 PUSH1 0x20 SWAP1 POP PUSH1 0x1F DUP4 GT PUSH1 0x1 DUP2 EQ PUSH2 0x21DA JUMPI PUSH1 0x0 DUP5 ISZERO PUSH2 0x21C8 JUMPI DUP3 DUP8 ADD MLOAD SWAP1 POP JUMPDEST PUSH2 0x21D2 DUP6 DUP3 PUSH2 0x2154 JUMP JUMPDEST DUP7 SSTORE POP PUSH2 0x223A JUMP JUMPDEST PUSH1 0x1F NOT DUP5 AND PUSH2 0x21E8 DUP7 PUSH2 0x1FCE JUMP JUMPDEST PUSH1 0x0 JUMPDEST DUP3 DUP2 LT ISZERO PUSH2 0x2210 JUMPI DUP5 DUP10 ADD MLOAD DUP3 SSTORE PUSH1 0x1 DUP3 ADD SWAP2 POP PUSH1 0x20 DUP6 ADD SWAP5 POP PUSH1 0x20 DUP2 ADD SWAP1 POP PUSH2 0x21EB JUMP JUMPDEST DUP7 DUP4 LT ISZERO PUSH2 0x222D JUMPI DUP5 DUP10 ADD MLOAD PUSH2 0x2229 PUSH1 0x1F DUP10 AND DUP3 PUSH2 0x2136 JUMP JUMPDEST DUP4 SSTORE POP JUMPDEST PUSH1 0x1 PUSH1 0x2 DUP9 MUL ADD DUP9 SSTORE POP POP POP JUMPDEST POP POP POP POP POP POP JUMP JUMPDEST PUSH1 0x0 PUSH1 0x20 DUP3 ADD SWAP1 POP DUP2 DUP2 SUB PUSH1 0x0 DUP4 ADD MSTORE PUSH2 0x225C DUP2 DUP5 PUSH2 0x168D JUMP JUMPDEST SWAP1 POP SWAP3 SWAP2 POP POP JUMP JUMPDEST PUSH32 0x43616E6E6F742061726368697665206163746976652073657373696F6E000000 PUSH1 0x0 DUP3 ADD MSTORE POP JUMP JUMPDEST PUSH1 0x0 PUSH2 0x229A PUSH1 0x1D DUP4 PUSH2 0x1641 JUMP JUMPDEST SWAP2 POP PUSH2 0x22A5 DUP3 PUSH2 0x2264 JUMP JUMPDEST PUSH1 0x20 DUP3 ADD SWAP1 POP SWAP2 SWAP1 POP JUMP JUMPDEST PUSH1 0x0 PUSH1 0x20 DUP3 ADD SWAP1 POP DUP2 DUP2 SUB PUSH1 0x0 DUP4 ADD MSTORE PUSH2 0x22C9 DUP2 PUSH2 0x228D JUMP JUMPDEST SWAP1 POP SWAP2 SWAP1 POP JUMP JUMPDEST PUSH32 0x4E6F2063616E6469646174657320696E207468652073657373696F6E00000000 PUSH1 0x0 DUP3 ADD MSTORE POP JUMP JUMPDEST PUSH1 0x0 PUSH2 0x2306 PUSH1 0x1C DUP4 PUSH2 0x1641 JUMP JUMPDEST SWAP2 POP PUSH2 0x2311 DUP3 PUSH2 0x22D0 JUMP JUMPDEST PUSH1 0x20 DUP3 ADD SWAP1 POP SWAP2 SWAP1 POP JUMP JUMPDEST PUSH1 0x0 PUSH1 0x20 DUP3 ADD SWAP1 POP DUP2 DUP2 SUB PUSH1 0x0 DUP4 ADD MSTORE PUSH2 0x2335 DUP2 PUSH2 0x22F9 JUMP JUMPDEST SWAP1 POP SWAP2 SWAP1 POP JUMP JUMPDEST PUSH32 0x4E487B7100000000000000000000000000000000000000000000000000000000 PUSH1 0x0 MSTORE PUSH1 0x32 PUSH1 0x4 MSTORE PUSH1 0x24 PUSH1 0x0 REVERT JUMPDEST PUSH32 0x4E487B7100000000000000000000000000000000000000000000000000000000 PUSH1 0x0 MSTORE PUSH1 0x11 PUSH1 0x4 MSTORE PUSH1 0x24 PUSH1 0x0 REVERT JUMPDEST PUSH1 0x0 PUSH2 0x23A5 DUP3 PUSH2 0x15C4 JUMP JUMPDEST SWAP2 POP PUSH32 0xFFFFFFFFFFFFFFFFFFFFFFFFFFFFFFFFFFFFFFFFFFFFFFFFFFFFFFFFFFFFFFFF DUP3 SUB PUSH2 0x23D7 JUMPI PUSH2 0x23D6 PUSH2 0x236B JUMP JUMPDEST JUMPDEST PUSH1 0x1 DUP3 ADD SWAP1 POP SWAP2 SWAP1 POP JUMP JUMPDEST PUSH32 0x456E642074696D65206D7573742062652061667465722073746172742074696D PUSH1 0x0 DUP3 ADD MSTORE PUSH32 0x6500000000000000000000000000000000000000000000000000000000000000 PUSH1 0x20 DUP3 ADD MSTORE POP JUMP JUMPDEST PUSH1 0x0 PUSH2 0x243E PUSH1 0x21 DUP4 PUSH2 0x1641 JUMP JUMPDEST SWAP2 POP PUSH2 0x2449 DUP3 PUSH2 0x23E2 JUMP JUMPDEST PUSH1 0x40 DUP3 ADD SWAP1 POP SWAP2 SWAP1 POP JUMP JUMPDEST PUSH1 0x0 PUSH1 0x20 DUP3 ADD SWAP1 POP DUP2 DUP2 SUB PUSH1 0x0 DUP4 ADD MSTORE PUSH2 0x246D DUP2 PUSH2 0x2431 JUMP JUMPDEST SWAP1 POP SWAP2 SWAP1 POP JUMP JUMPDEST PUSH1 0x0 PUSH1 0xA0 DUP3 ADD SWAP1 POP PUSH2 0x2489 PUSH1 0x0 DUP4 ADD DUP9 PUSH2 0x1627 JUMP JUMPDEST DUP2 DUP2 SUB PUSH1 0x20 DUP4 ADD MSTORE PUSH2 0x249B DUP2 DUP8 PUSH2 0x168D JUMP JUMPDEST SWAP1 POP PUSH2 0x24AA PUSH1 0x40 DUP4 ADD DUP7 PUSH2 0x1627 JUMP JUMPDEST PUSH2 0x24B7 PUSH1 0x60 DUP4 ADD DUP6 PUSH2 0x1627 JUMP JUMPDEST PUSH2 0x24C4 PUSH1 0x80 DUP4 ADD DUP5 PUSH2 0x16D2 JUMP JUMPDEST SWAP7 SWAP6 POP POP POP POP POP POP JUMP JUMPDEST PUSH32 0x496E76616C6964206465636F6465722061646472657373000000000000000000 PUSH1 0x0 DUP3 ADD MSTORE POP JUMP JUMPDEST PUSH1 0x0 PUSH2 0x2504 PUSH1 0x17 DUP4 PUSH2 0x1641 JUMP JUMPDEST SWAP2 POP PUSH2 0x250F DUP3 PUSH2 0x24CE JUMP JUMPDEST PUSH1 0x20 DUP3 ADD SWAP1 POP SWAP2 SWAP1 POP JUMP JUMPDEST PUSH1 0x0 PUSH1 0x20 DUP3 ADD SWAP1 POP DUP2 DUP2 SUB PUSH1 0x0 DUP4 ADD MSTORE PUSH2 0x2533 DUP2 PUSH2 0x24F7 JUMP JUMPDEST SWAP1 POP SWAP2 SWAP1 POP JUMP JUMPDEST PUSH32 0x566F74696E67206973206E6F742061637469766520666F722074686973207365 PUSH1 0x0 DUP3 ADD MSTORE PUSH32 0x7373696F6E000000000000000000000000000000000000000000000000000000 PUSH1 0x20 DUP3 ADD MSTORE POP JUMP JUMPDEST PUSH1 0x0 PUSH2 0x2596 PUSH1 0x25 DUP4 PUSH2 0x1641 JUMP JUMPDEST SWAP2 POP PUSH2 0x25A1 DUP3 PUSH2 0x253A JUMP JUMPDEST PUSH1 0x40 DUP3 ADD SWAP1 POP SWAP2 SWAP1 POP JUMP JUMPDEST PUSH1 0x0 PUSH1 0x20 DUP3 ADD SWAP1 POP DUP2 DUP2 SUB PUSH1 0x0 DUP4 ADD MSTORE PUSH2 0x25C5 DUP2 PUSH2 0x2589 JUMP JUMPDEST SWAP1 POP SWAP2 SWAP1 POP JUMP JUMPDEST PUSH32 0x53657373696F6E2063616E6E6F7420737461727420776974686F75742063616E PUSH1 0x0 DUP3 ADD MSTORE PUSH32 0x6469646174657300000000000000000000000000000000000000000000000000 PUSH1 0x20 DUP3 ADD MSTORE POP JUMP JUMPDEST PUSH1 0x0 PUSH2 0x2628 PUSH1 0x27 DUP4 PUSH2 0x1641 JUMP JUMPDEST SWAP2 POP PUSH2 0x2633 DUP3 PUSH2 0x25CC JUMP JUMPDEST PUSH1 0x40 DUP3 ADD SWAP1 POP SWAP2 SWAP1 POP JUMP JUMPDEST PUSH1 0x0 PUSH1 0x20 DUP3 ADD SWAP1 POP DUP2 DUP2 SUB PUSH1 0x0 DUP4 ADD MSTORE PUSH2 0x2657 DUP2 PUSH2 0x261B JUMP JUMPDEST SWAP1 POP SWAP2 SWAP1 POP JUMP JUMPDEST PUSH32 0x596F75206861766520616C726561647920766F74656400000000000000000000 PUSH1 0x0 DUP3 ADD MSTORE POP JUMP JUMPDEST PUSH1 0x0 PUSH2 0x2694 PUSH1 0x16 DUP4 PUSH2 0x1641 JUMP JUMPDEST SWAP2 POP PUSH2 0x269F DUP3 PUSH2 0x265E JUMP JUMPDEST PUSH1 0x20 DUP3 ADD SWAP1 POP SWAP2 SWAP1 POP JUMP JUMPDEST PUSH1 0x0 PUSH1 0x20 DUP3 ADD SWAP1 POP DUP2 DUP2 SUB PUSH1 0x0 DUP4 ADD MSTORE PUSH2 0x26C3 DUP2 PUSH2 0x2687 JUMP JUMPDEST SWAP1 POP SWAP2 SWAP1 POP JUMP JUMPDEST PUSH32 0x496E76616C69642063616E646964617465204944000000000000000000000000 PUSH1 0x0 DUP3 ADD MSTORE POP JUMP JUMPDEST PUSH1 0x0 PUSH2 0x2700 PUSH1 0x14 DUP4 PUSH2 0x1641 JUMP JUMPDEST SWAP2 POP PUSH2 0x270B DUP3 PUSH2 0x26CA JUMP JUMPDEST PUSH1 0x20 DUP3 ADD SWAP1 POP SWAP2 SWAP1 POP JUMP JUMPDEST PUSH1 0x0 PUSH1 0x20 DUP3 ADD SWAP1 POP DUP2 DUP2 SUB PUSH1 0x0 DUP4 ADD MSTORE PUSH2 0x272F DUP2 PUSH2 0x26F3 JUMP JUMPDEST SWAP1 POP SWAP2 SWAP1 POP JUMP JUMPDEST PUSH1 0x0 DUP2 MLOAD SWAP1 POP PUSH2 0x2745 DUP2 PUSH2 0x1AEE JUMP JUMPDEST SWAP3 SWAP2 POP POP JUMP JUMPDEST PUSH1 0x0 PUSH1 0x20 DUP3 DUP5 SUB SLT ISZERO PUSH2 0x2761 JUMPI PUSH2 0x2760 PUSH2 0x15BA JUMP JUMPDEST JUMPDEST PUSH1 0x0 PUSH2 0x276F DUP5 DUP3 DUP6 ADD PUSH2 0x2736 JUMP JUMPDEST SWAP2 POP POP SWAP3 SWAP2 POP POP JUMP JUMPDEST PUSH32 0x476974636F696E2050617373706F72742072657175697265643A20796F757220 PUSH1 0x0 DUP3 ADD MSTORE PUSH32 0x73636F72652069732062656C6F7720746865207468726573686F6C642E205669 PUSH1 0x20 DUP3 ADD MSTORE PUSH32 0x7369742070617373706F72742E78797A20746F207665726966792E0000000000 PUSH1 0x40 DUP3 ADD MSTORE POP JUMP JUMPDEST PUSH1 0x0 PUSH2 0x27FA PUSH1 0x5B DUP4 PUSH2 0x1641 JUMP JUMPDEST SWAP2 POP PUSH2 0x2805 DUP3 PUSH2 0x2778 JUMP JUMPDEST PUSH1 0x60 DUP3 ADD SWAP1 POP SWAP2 SWAP1 POP JUMP JUMPDEST PUSH1 0x0 PUSH1 0x20 DUP3 ADD SWAP1 POP DUP2 DUP2 SUB PUSH1 0x0 DUP4 ADD MSTORE PUSH2 0x2829 DUP2 PUSH2 0x27ED JUMP JUMPDEST SWAP1 POP SWAP2 SWAP1 POP JUMP INVALID LOG2 PUSH5 0x6970667358 0x22 SLT KECCAK256 0xBE BLOBHASH PUSH21 0x12E7DC092C0CA03FB7F44AC9620BC6F15892E8955C 0xD9 PC 0x4E SWAP16 0xD7 0xC9 0xB6 GASLIMIT PUSH5 0x736F6C6343 STOP ADDMOD SHR STOP CALLER "
        },
        "methodIdentifiers": {
          "addCandidate(uint256,string)": "1750a3d0",
          "archiveSession(uint256)": "3544bfea",
          "createVotingSession(string,uint256,uint256,bool)": "84dec12b",
          "getCandidates(uint256)": "3e39a7a5",
          "getSessionCreator(uint256)": "aa6f22f5",
          "getWinner(uint256)": "4129b2c9",
          "hasUserVoted(uint256,address)": "dc296ae1",
          "owner()": "8da5cb5b",
          "passportDecoder()": "d237884e",
          "renounceOwnership()": "715018a6",
          "sessionCount()": "73cd8336",
          "setPassportDecoder(address)": "978137d2",
          "transferOwnership(address)": "f2fde38b",
          "vote(uint256,uint256)": "b384abef",
          "votingSessions(uint256)": "1186eb7c"
        }
      }
    }
  }
}