{
  "_format": "hh-sol-artifact-1",
  "contractName": "VotingContract",
  "sourceName": "contracts/VotingContract.sol",
  "abi": [
    {
      "inputs": [],
      "stateMutability": "nonpayable",
      "type": "constructor"
    },
    {
      "inputs": [
        {
          "internalType": "address",
          "name": "owner",
          "type": "address"
        }
      ],
      "name": "OwnableInvalidOwner",
      "type": "error"
    },
    {
      "inputs": [
        {
          "internalType": "address",
          "name": "account",
          "type": "address"
        }
      ],
      "name": "OwnableUnauthorizedAccount",
      "type": "error"
    },
    {
      "inputs": [],
      "name": "ReentrancyGuardReentrantCall",
      "type": "error"
    },
    {
      "anonymous": false,
      "inputs": [
        {
          "indexed": true,
          "internalType": "uint256",
          "name": "sessionId",
          "type": "uint256"
        },
        {
          "indexed": false,
          "internalType": "string",
          "name": "candidateName",
          "type": "string"
        }
      ],
      "name": "CandidateAdded",
      "type": "event"
    },
    {
      "anonymous": false,
      "inputs": [
        {
          "indexed": true,
          "internalType": "address",
          "name": "previousOwner",
          "type": "address"
        },
        {
          "indexed": true,
          "internalType": "address",
          "name": "newOwner",
          "type": "address"
        }
      ],
      "name": "OwnershipTransferred",
      "type": "event"
    },
    {
      "anonymous": false,
      "inputs": [
        {
          "indexed": true,
          "internalType": "uint256",
          "name": "sessionId",
          "type": "uint256"
        }
      ],
      "name": "SessionArchived",
      "type": "event"
    },
    {
      "anonymous": false,
      "inputs": [
        {
          "indexed": true,
          "internalType": "address",
          "name": "voter",
          "type": "address"
        },
        {
          "indexed": true,
          "internalType": "uint256",
          "name": "sessionId",
          "type": "uint256"
        },
        {
          "indexed": false,
          "internalType": "uint256",
          "name": "candidateId",
          "type": "uint256"
        }
      ],
      "name": "VoteCast",
      "type": "event"
    },
    {
      "anonymous": false,
      "inputs": [
        {
          "indexed": true,
          "internalType": "address",
          "name": "creator",
          "type": "address"
        },
        {
          "indexed": false,
          "internalType": "uint256",
          "name": "sessionId",
          "type": "uint256"
        },
        {
          "indexed": false,
          "internalType": "string",
          "name": "title",
          "type": "string"
        },
        {
          "indexed": false,
          "internalType": "uint256",
          "name": "startTime",
          "type": "uint256"
        },
        {
          "indexed": false,
          "internalType": "uint256",
          "name": "endTime",
          "type": "uint256"
        }
      ],
      "name": "VotingSessionCreated",
      "type": "event"
    },
    {
      "inputs": [
        {
          "internalType": "uint256",
          "name": "sessionId",
          "type": "uint256"
        },
        {
          "internalType": "string",
          "name": "name",
          "type": "string"
        }
      ],
      "name": "addCandidate",
      "outputs": [],
      "stateMutability": "nonpayable",
      "type": "function"
    },
    {
      "inputs": [
        {
          "internalType": "uint256",
          "name": "sessionId",
          "type": "uint256"
        }
      ],
      "name": "archiveSession",
      "outputs": [],
      "stateMutability": "nonpayable",
      "type": "function"
    },
    {
      "inputs": [
        {
          "internalType": "string",
          "name": "title",
          "type": "string"
        },
        {
          "internalType": "uint256",
          "name": "startTime",
          "type": "uint256"
        },
        {
          "internalType": "uint256",
          "name": "endTime",
          "type": "uint256"
        }
      ],
      "name": "createVotingSession",
      "outputs": [],
      "stateMutability": "nonpayable",
      "type": "function"
    },
    {
      "inputs": [
        {
          "internalType": "uint256",
          "name": "sessionId",
          "type": "uint256"
        }
      ],
      "name": "getCandidates",
      "outputs": [
        {
          "components": [
            {
              "internalType": "string",
              "name": "name",
              "type": "string"
            },
            {
              "internalType": "uint256",
              "name": "voteCount",
              "type": "uint256"
            }
          ],
          "internalType": "struct VotingContract.Candidate[]",
          "name": "",
          "type": "tuple[]"
        }
      ],
      "stateMutability": "view",
      "type": "function"
    },
    {
      "inputs": [
        {
          "internalType": "uint256",
          "name": "sessionId",
          "type": "uint256"
        }
      ],
      "name": "getSessionCreator",
      "outputs": [
        {
          "internalType": "address",
          "name": "",
          "type": "address"
        }
      ],
      "stateMutability": "view",
      "type": "function"
    },
    {
      "inputs": [
        {
          "internalType": "uint256",
          "name": "sessionId",
          "type": "uint256"
        }
      ],
      "name": "getWinner",
      "outputs": [
        {
          "internalType": "string",
          "name": "winnerName",
          "type": "string"
        },
        {
          "internalType": "bool",
          "name": "isTie",
          "type": "bool"
        }
      ],
      "stateMutability": "view",
      "type": "function"
    },
    {
      "inputs": [
        {
          "internalType": "uint256",
          "name": "sessionId",
          "type": "uint256"
        },
        {
          "internalType": "address",
          "name": "user",
          "type": "address"
        }
      ],
      "name": "hasUserVoted",
      "outputs": [
        {
          "internalType": "bool",
          "name": "",
          "type": "bool"
        }
      ],
      "stateMutability": "view",
      "type": "function"
    },
    {
      "inputs": [],
      "name": "owner",
      "outputs": [
        {
          "internalType": "address",
          "name": "",
          "type": "address"
        }
      ],
      "stateMutability": "view",
      "type": "function"
    },
    {
      "inputs": [],
      "name": "renounceOwnership",
      "outputs": [],
      "stateMutability": "nonpayable",
      "type": "function"
    },
    {
      "inputs": [],
      "name": "sessionCount",
      "outputs": [
        {
          "internalType": "uint256",
          "name": "",
          "type": "uint256"
        }
      ],
      "stateMutability": "view",
      "type": "function"
    },
    {
      "inputs": [
        {
          "internalType": "address",
          "name": "newOwner",
          "type": "address"
        }
      ],
      "name": "transferOwnership",
      "outputs": [],
      "stateMutability": "nonpayable",
      "type": "function"
    },
    {
      "inputs": [
        {
          "internalType": "uint256",
          "name": "sessionId",
          "type": "uint256"
        },
        {
          "internalType": "uint256",
          "name": "candidateId",
          "type": "uint256"
        }
      ],
      "name": "vote",
      "outputs": [],
      "stateMutability": "nonpayable",
      "type": "function"
    },
    {
      "inputs": [
        {
          "internalType": "uint256",
          "name": "",
          "type": "uint256"
        }
      ],
      "name": "votingSessions",
      "outputs": [
        {
          "internalType": "uint256",
          "name": "id",
          "type": "uint256"
        },
        {
          "internalType": "string",
          "name": "title",
          "type": "string"
        },
        {
          "internalType": "uint256",
          "name": "startTime",
          "type": "uint256"
        },
        {
          "internalType": "uint256",
          "name": "endTime",
          "type": "uint256"
        },
        {
          "internalType": "bool",
          "name": "isActive",
          "type": "bool"
        },
        {
          "internalType": "address",
          "name": "creator",
          "type": "address"
        }
      ],
      "stateMutability": "view",
      "type": "function"
    }
  ],
  "bytecode": "0x608060405234801561001057600080fd5b5033600073ffffffffffffffffffffffffffffffffffffffff168173ffffffffffffffffffffffffffffffffffffffff16036100845760006040517f1e4fbdf700000000000000000000000000000000000000000000000000000000815260040161007b91906101a5565b60405180910390fd5b610093816100a060201b60201c565b50600180819055506101c0565b60008060009054906101000a900473ffffffffffffffffffffffffffffffffffffffff169050816000806101000a81548173ffffffffffffffffffffffffffffffffffffffff021916908373ffffffffffffffffffffffffffffffffffffffff1602179055508173ffffffffffffffffffffffffffffffffffffffff168173ffffffffffffffffffffffffffffffffffffffff167f8be0079c531659141344cd1fd0a4f28419497f9722a3daafe3b4186f6b6457e060405160405180910390a35050565b600073ffffffffffffffffffffffffffffffffffffffff82169050919050565b600061018f82610164565b9050919050565b61019f81610184565b82525050565b60006020820190506101ba6000830184610196565b92915050565b61229c806101cf6000396000f3fe608060405234801561001057600080fd5b50600436106100cf5760003560e01c806373cd83361161008c578063b384abef11610066578063b384abef14610218578063c08503c614610234578063dc296ae114610250578063f2fde38b14610280576100cf565b806373cd8336146101ac5780638da5cb5b146101ca578063aa6f22f5146101e8576100cf565b80631186eb7c146100d45780631750a3d0146101095780633544bfea146101255780633e39a7a5146101415780634129b2c914610171578063715018a6146101a2575b600080fd5b6100ee60048036038101906100e991906112f4565b61029c565b6040516101009695949392919061141c565b60405180910390f35b610123600480360381019061011e91906115b9565b61038d565b005b61013f600480360381019061013a91906112f4565b6105dd565b005b61015b600480360381019061015691906112f4565b6106e2565b604051610168919061176d565b60405180910390f35b61018b600480360381019061018691906112f4565b61084d565b60405161019992919061178f565b60405180910390f35b6101aa610ab9565b005b6101b4610acd565b6040516101c191906117bf565b60405180910390f35b6101d2610ad3565b6040516101df91906117da565b60405180910390f35b61020260048036038101906101fd91906112f4565b610afc565b60405161020f91906117da565b60405180910390f35b610232600480360381019061022d91906117f5565b610b96565b005b61024e60048036038101906102499190611835565b610e57565b005b61026a600480360381019061026591906118d0565b610fbd565b6040516102779190611910565b60405180910390f35b61029a6004803603810190610295919061192b565b611082565b005b60036020528060005260406000206000915090508060000154908060010180546102c590611987565b80601f01602080910402602001604051908101604052809291908181526020018280546102f190611987565b801561033e5780601f106103135761010080835404028352916020019161033e565b820191906000526020600020905b81548152906001019060200180831161032157829003601f168201915b5050505050908060020154908060030154908060060160009054906101000a900460ff16908060060160019054906101000a900473ffffffffffffffffffffffffffffffffffffffff16905086565b81806003600083815260200190815260200160002060000154146103e6576040517f08c379a00000000000000000000000000000000000000000000000000000000081526004016103dd90611a04565b60405180910390fd5b826003600082815260200190815260200160002060060160019054906101000a900473ffffffffffffffffffffffffffffffffffffffff1673ffffffffffffffffffffffffffffffffffffffff163373ffffffffffffffffffffffffffffffffffffffff161461048b576040517f08c379a000000000000000000000000000000000000000000000000000000000815260040161048290611a96565b60405180910390fd5b60006003600086815260200190815260200160002090508060060160009054906101000a900460ff166104f3576040517f08c379a00000000000000000000000000000000000000000000000000000000081526004016104ea90611b4e565b60405180910390fd5b80600201544210610539576040517f08c379a000000000000000000000000000000000000000000000000000000000815260040161053090611be0565b60405180910390fd5b8060040160405180604001604052808681526020016000815250908060018154018082558091505060019003906000526020600020906002020160009091909190915060008201518160000190816105919190611dac565b50602082015181600101555050847fe83b2a43e7e82d975c8a0a6d2f045153c869e111136a34d1889ab7b598e396a3856040516105ce9190611e7e565b60405180910390a25050505050565b8080600360008381526020019081526020016000206000015414610636576040517f08c379a000000000000000000000000000000000000000000000000000000000815260040161062d90611a04565b60405180910390fd5b600060036000848152602001908152602001600020905080600301544211610693576040517f08c379a000000000000000000000000000000000000000000000000000000000815260040161068a90611eec565b60405180910390fd5b60008160060160006101000a81548160ff021916908315150217905550827f86ab214b9941164ba2b8fa50046c3399316cf613517f781985e3180dbdb65bfd60405160405180910390a2505050565b6060818060036000838152602001908152602001600020600001541461073d576040517f08c379a000000000000000000000000000000000000000000000000000000000815260040161073490611a04565b60405180910390fd5b60036000848152602001908152602001600020600401805480602002602001604051908101604052809291908181526020016000905b8282101561084157838290600052602060002090600202016040518060400160405290816000820180546107a690611987565b80601f01602080910402602001604051908101604052809291908181526020018280546107d290611987565b801561081f5780601f106107f45761010080835404028352916020019161081f565b820191906000526020600020905b81548152906001019060200180831161080257829003601f168201915b5050505050815260200160018201548152505081526020019060010190610773565b50505050915050919050565b6060600082806003600083815260200190815260200160002060000154146108aa576040517f08c379a00000000000000000000000000000000000000000000000000000000081526004016108a190611a04565b60405180910390fd5b6000600360008681526020019081526020016000209050600081600401805490501161090b576040517f08c379a000000000000000000000000000000000000000000000000000000000815260040161090290611f58565b60405180910390fd5b60008060005b8360040180549050811015610a7f578284600401828154811061093757610936611f78565b5b9060005260206000209060020201600101541115610a345783600401818154811061096557610964611f78565b5b906000526020600020906002020160010154925083600401818154811061098f5761098e611f78565b5b906000526020600020906002020160000180546109ab90611987565b80601f01602080910402602001604051908101604052809291908181526020018280546109d790611987565b8015610a245780601f106109f957610100808354040283529160200191610a24565b820191906000526020600020905b815481529060010190602001808311610a0757829003601f168201915b5050505050965060019150610a72565b82846004018281548110610a4b57610a4a611f78565b5b90600052602060002090600202016001015403610a71578180610a6d90611fd6565b9250505b5b8080600101915050610911565b506001811115610aa8576001604051806020016040528060008152509095509550505050610ab3565b856000955095505050505b50915091565b610ac1611108565b610acb600061118f565b565b60025481565b60008060009054906101000a900473ffffffffffffffffffffffffffffffffffffffff16905090565b60008180600360008381526020019081526020016000206000015414610b57576040517f08c379a0000000000000000000000000000000000000000000000000000000008152600401610b4e90611a04565b60405180910390fd5b6003600084815260200190815260200160002060060160019054906101000a900473ffffffffffffffffffffffffffffffffffffffff16915050919050565b610b9e611253565b8160036000828152602001908152602001600020600201544210158015610bdb575060036000828152602001908152602001600020600301544211155b610c1a576040517f08c379a0000000000000000000000000000000000000000000000000000000008152600401610c1190612090565b60405180910390fd5b8280600360008381526020019081526020016000206000015414610c73576040517f08c379a0000000000000000000000000000000000000000000000000000000008152600401610c6a90611a04565b60405180910390fd5b60006003600086815260200190815260200160002090508060050160003373ffffffffffffffffffffffffffffffffffffffff1673ffffffffffffffffffffffffffffffffffffffff16815260200190815260200160002060009054906101000a900460ff1615610d19576040517f08c379a0000000000000000000000000000000000000000000000000000000008152600401610d10906120fc565b60405180910390fd5b80600401805490508410610d62576040517f08c379a0000000000000000000000000000000000000000000000000000000008152600401610d5990612168565b60405180910390fd5b60018160050160003373ffffffffffffffffffffffffffffffffffffffff1673ffffffffffffffffffffffffffffffffffffffff16815260200190815260200160002060006101000a81548160ff021916908315150217905550806004018481548110610dd257610dd1611f78565b5b90600052602060002090600202016001016000815480929190610df490611fd6565b9190505550843373ffffffffffffffffffffffffffffffffffffffff167fb4cfecf70861b7b150d8337780d34fb4cbc2114b5fb1fe51a5c5fca1849f727486604051610e4091906117bf565b60405180910390a3505050610e53611299565b5050565b610e5f611108565b818111610ea1576040517f08c379a0000000000000000000000000000000000000000000000000000000008152600401610e98906121fa565b60405180910390fd5b60006003600060025481526020019081526020016000209050600254816000018190555083816001019081610ed69190611dac565b5082816002018190555081816003018190555060018160060160006101000a81548160ff021916908315150217905550338160060160016101000a81548173ffffffffffffffffffffffffffffffffffffffff021916908373ffffffffffffffffffffffffffffffffffffffff1602179055503373ffffffffffffffffffffffffffffffffffffffff167f04f45a9c6dd9a8d45035d3a1449ce0b77c77bb4f48e291a201e0dd63d21b087b600254868686604051610f97949392919061221a565b60405180910390a260026000815480929190610fb290611fd6565b919050555050505050565b60008280600360008381526020019081526020016000206000015414611018576040517f08c379a000000000000000000000000000000000000000000000000000000000815260040161100f90611a04565b60405180910390fd5b6003600085815260200190815260200160002060050160008473ffffffffffffffffffffffffffffffffffffffff1673ffffffffffffffffffffffffffffffffffffffff16815260200190815260200160002060009054906101000a900460ff1691505092915050565b61108a611108565b600073ffffffffffffffffffffffffffffffffffffffff168173ffffffffffffffffffffffffffffffffffffffff16036110fc5760006040517f1e4fbdf70000000000000000000000000000000000000000000000000000000081526004016110f391906117da565b60405180910390fd5b6111058161118f565b50565b6111106112a2565b73ffffffffffffffffffffffffffffffffffffffff1661112e610ad3565b73ffffffffffffffffffffffffffffffffffffffff161461118d576111516112a2565b6040517f118cdaa700000000000000000000000000000000000000000000000000000000815260040161118491906117da565b60405180910390fd5b565b60008060009054906101000a900473ffffffffffffffffffffffffffffffffffffffff169050816000806101000a81548173ffffffffffffffffffffffffffffffffffffffff021916908373ffffffffffffffffffffffffffffffffffffffff1602179055508173ffffffffffffffffffffffffffffffffffffffff168173ffffffffffffffffffffffffffffffffffffffff167f8be0079c531659141344cd1fd0a4f28419497f9722a3daafe3b4186f6b6457e060405160405180910390a35050565b60026001540361128f576040517f3ee5aeb500000000000000000000000000000000000000000000000000000000815260040160405180910390fd5b6002600181905550565b60018081905550565b600033905090565b6000604051905090565b600080fd5b600080fd5b6000819050919050565b6112d1816112be565b81146112dc57600080fd5b50565b6000813590506112ee816112c8565b92915050565b60006020828403121561130a576113096112b4565b5b6000611318848285016112df565b91505092915050565b61132a816112be565b82525050565b600081519050919050565b600082825260208201905092915050565b60005b8381101561136a57808201518184015260208101905061134f565b60008484015250505050565b6000601f19601f8301169050919050565b600061139282611330565b61139c818561133b565b93506113ac81856020860161134c565b6113b581611376565b840191505092915050565b60008115159050919050565b6113d5816113c0565b82525050565b600073ffffffffffffffffffffffffffffffffffffffff82169050919050565b6000611406826113db565b9050919050565b611416816113fb565b82525050565b600060c0820190506114316000830189611321565b81810360208301526114438188611387565b90506114526040830187611321565b61145f6060830186611321565b61146c60808301856113cc565b61147960a083018461140d565b979650505050505050565b600080fd5b600080fd5b7f4e487b7100000000000000000000000000000000000000000000000000000000600052604160045260246000fd5b6114c682611376565b810181811067ffffffffffffffff821117156114e5576114e461148e565b5b80604052505050565b60006114f86112aa565b905061150482826114bd565b919050565b600067ffffffffffffffff8211156115245761152361148e565b5b61152d82611376565b9050602081019050919050565b82818337600083830152505050565b600061155c61155784611509565b6114ee565b90508281526020810184848401111561157857611577611489565b5b61158384828561153a565b509392505050565b600082601f8301126115a05761159f611484565b5b81356115b0848260208601611549565b91505092915050565b600080604083850312156115d0576115cf6112b4565b5b60006115de858286016112df565b925050602083013567ffffffffffffffff8111156115ff576115fe6112b9565b5b61160b8582860161158b565b9150509250929050565b600081519050919050565b600082825260208201905092915050565b6000819050602082019050919050565b600082825260208201905092915050565b600061165d82611330565b6116678185611641565b935061167781856020860161134c565b61168081611376565b840191505092915050565b611694816112be565b82525050565b600060408301600083015184820360008601526116b78282611652565b91505060208301516116cc602086018261168b565b508091505092915050565b60006116e3838361169a565b905092915050565b6000602082019050919050565b600061170382611615565b61170d8185611620565b93508360208202850161171f85611631565b8060005b8581101561175b578484038952815161173c85826116d7565b9450611747836116eb565b925060208a01995050600181019050611723565b50829750879550505050505092915050565b6000602082019050818103600083015261178781846116f8565b905092915050565b600060408201905081810360008301526117a98185611387565b90506117b860208301846113cc565b9392505050565b60006020820190506117d46000830184611321565b92915050565b60006020820190506117ef600083018461140d565b92915050565b6000806040838503121561180c5761180b6112b4565b5b600061181a858286016112df565b925050602061182b858286016112df565b9150509250929050565b60008060006060848603121561184e5761184d6112b4565b5b600084013567ffffffffffffffff81111561186c5761186b6112b9565b5b6118788682870161158b565b9350506020611889868287016112df565b925050604061189a868287016112df565b9150509250925092565b6118ad816113fb565b81146118b857600080fd5b50565b6000813590506118ca816118a4565b92915050565b600080604083850312156118e7576118e66112b4565b5b60006118f5858286016112df565b9250506020611906858286016118bb565b9150509250929050565b600060208201905061192560008301846113cc565b92915050565b600060208284031215611941576119406112b4565b5b600061194f848285016118bb565b91505092915050565b7f4e487b7100000000000000000000000000000000000000000000000000000000600052602260045260246000fd5b6000600282049050600182168061199f57607f821691505b6020821081036119b2576119b1611958565b5b50919050565b7f53657373696f6e20646f6573206e6f7420657869737400000000000000000000600082015250565b60006119ee60168361133b565b91506119f9826119b8565b602082019050919050565b60006020820190508181036000830152611a1d816119e1565b9050919050565b7f4f6e6c79207468652073657373696f6e2063726561746f722063616e2070657260008201527f666f726d207468697320616374696f6e00000000000000000000000000000000602082015250565b6000611a8060308361133b565b9150611a8b82611a24565b604082019050919050565b60006020820190508181036000830152611aaf81611a73565b9050919050565b7f596f752063616e6e6f742061646420612063616e64696461746520746f20612060008201527f766f74696e672073657373696f6e20746861742068617320616c72656164792060208201527f656e6465642e0000000000000000000000000000000000000000000000000000604082015250565b6000611b3860468361133b565b9150611b4382611ab6565b606082019050919050565b60006020820190508181036000830152611b6781611b2b565b9050919050565b7f43616e646964617465732063616e6e6f7420626520616464656420647572696e60008201527f672074686520766f74696e6720706572696f642e000000000000000000000000602082015250565b6000611bca60348361133b565b9150611bd582611b6e565b604082019050919050565b60006020820190508181036000830152611bf981611bbd565b9050919050565b60008190508160005260206000209050919050565b60006020601f8301049050919050565b600082821b905092915050565b600060088302611c627fffffffffffffffffffffffffffffffffffffffffffffffffffffffffffffffff82611c25565b611c6c8683611c25565b95508019841693508086168417925050509392505050565b6000819050919050565b6000611ca9611ca4611c9f846112be565b611c84565b6112be565b9050919050565b6000819050919050565b611cc383611c8e565b611cd7611ccf82611cb0565b848454611c32565b825550505050565b600090565b611cec611cdf565b611cf7818484611cba565b505050565b5b81811015611d1b57611d10600082611ce4565b600181019050611cfd565b5050565b601f821115611d6057611d3181611c00565b611d3a84611c15565b81016020851015611d49578190505b611d5d611d5585611c15565b830182611cfc565b50505b505050565b600082821c905092915050565b6000611d8360001984600802611d65565b1980831691505092915050565b6000611d9c8383611d72565b9150826002028217905092915050565b611db582611330565b67ffffffffffffffff811115611dce57611dcd61148e565b5b611dd88254611987565b611de3828285611d1f565b600060209050601f831160018114611e165760008415611e04578287015190505b611e0e8582611d90565b865550611e76565b601f198416611e2486611c00565b60005b82811015611e4c57848901518255600182019150602085019450602081019050611e27565b86831015611e695784890151611e65601f891682611d72565b8355505b6001600288020188555050505b505050505050565b60006020820190508181036000830152611e988184611387565b905092915050565b7f43616e6e6f742061726368697665206163746976652073657373696f6e000000600082015250565b6000611ed6601d8361133b565b9150611ee182611ea0565b602082019050919050565b60006020820190508181036000830152611f0581611ec9565b9050919050565b7f4e6f2063616e6469646174657320696e207468652073657373696f6e00000000600082015250565b6000611f42601c8361133b565b9150611f4d82611f0c565b602082019050919050565b60006020820190508181036000830152611f7181611f35565b9050919050565b7f4e487b7100000000000000000000000000000000000000000000000000000000600052603260045260246000fd5b7f4e487b7100000000000000000000000000000000000000000000000000000000600052601160045260246000fd5b6000611fe1826112be565b91507fffffffffffffffffffffffffffffffffffffffffffffffffffffffffffffffff820361201357612012611fa7565b5b600182019050919050565b7f566f74696e67206973206e6f742061637469766520666f72207468697320736560008201527f7373696f6e000000000000000000000000000000000000000000000000000000602082015250565b600061207a60258361133b565b91506120858261201e565b604082019050919050565b600060208201905081810360008301526120a98161206d565b9050919050565b7f596f75206861766520616c726561647920766f74656400000000000000000000600082015250565b60006120e660168361133b565b91506120f1826120b0565b602082019050919050565b60006020820190508181036000830152612115816120d9565b9050919050565b7f496e76616c69642063616e646964617465204944000000000000000000000000600082015250565b600061215260148361133b565b915061215d8261211c565b602082019050919050565b6000602082019050818103600083015261218181612145565b9050919050565b7f456e642074696d65206d7573742062652061667465722073746172742074696d60008201527f6500000000000000000000000000000000000000000000000000000000000000602082015250565b60006121e460218361133b565b91506121ef82612188565b604082019050919050565b60006020820190508181036000830152612213816121d7565b9050919050565b600060808201905061222f6000830187611321565b81810360208301526122418186611387565b90506122506040830185611321565b61225d6060830184611321565b9594505050505056fea2646970667358221220920739816f24f93efa50283f3de8246070a66637faa4329f24bba1e6bd302e0764736f6c634300081c0033",
  "linkReferences": {},
  "deployedLinkReferences": {}
}